:100000000C9446000C9465000C9465000C946500FB
:100010000C9465000C9465000C9465000C946500CC
:100020000C9465000C9465000C9465000C946500BC
:100030000C940B030C9401030C94F7020C946500D0
:100040000C9465000C945E030C9446010C946500BE
:100050000C9473010C9465000C9465000C9465007D
:100060000C9465000C9465000C9465000C9465007C
:100070000C9465000C9465000C9465000C9465006C
:100080000C9465000C9465000C94650011241FBE4F
:10009000CFEFD0E1DEBFCDBF12E0A0E0B1E0E2ECF7
:1000A000F3E100E00BBF02C007900D92AE33B10741
:1000B000D9F712E0AEE3B2E001C01D92A638B10755
:1000C000E1F70E94B2090C94DF090C940000CF9371
:1000D000DF93EC01009711F483E02AC0693C7105BD
:1000E00010F081E025C030913E02343010F082E003
:1000F0001FC0832F90E0FC01EE0FFF1FE80FF91FD8
:10010000EE0FFF1FDF01A15CBD4F1196DC93CE9374
:1001100013966C931397EF5BFD4F408385E0149625
:100120008C93149715962C933F5F30933E0280E09A
:10013000DF91CF91089590913E02E1E4F2E083E0F7
:10014000989F90011124220F331F2E0F3F1F42E072
:100150000FC08081882359F092818181981728F0FF
:10016000408383818B5F828302C09B5F928336963C
:10017000E217F30771F708950F931F93CF93DF935F
:1001800010E001E019C0812F90E0FC01EE0FFF1F8D
:10019000E80FF91FEF01CC0FDD1FCF5BDD4F88812A
:1001A000823049F4EE0FFF1FE15CFD4F0190F081BA
:1001B000E02D099508831F5F80913E02181718F300
:1001C000DF91CF911F910F9108950E9458080895D3
:1001D0000E94240908950E945D0808950E94DE0887
:1001E000089510BC87E689B988E18AB986E88093CA
:1001F000950008955D9BFECF8CB908955F9BFECF5F
:100200008CB1089520E004C05D9BFECFECB92F5F58
:10021000FC01E20FF11DE081EE23B1F708958CB1EE
:100220008053089510BC87E689B988E18AB986E8C9
:100230008093950008958CB90895FC015F9BFECFD3
:100240008CB1808308950E94020108955F9BFECFC8
:100250008CB1805308955F9BFECF8CB1805308957D
:10026000579A089557980895569A0895569808955C
:1002700090935A0280935902089590935802809364
:10028000570208958CB908958CB108951F920F926A
:100290000FB60F920BB60F9211242F933F934F93EB
:1002A0005F936F937F938F939F93AF93BF93EF93DE
:1002B000FF93E0915902F0915A02309709F00995A5
:1002C000FF91EF91BF91AF919F918F917F916F912E
:1002D0005F914F913F912F910F900BBE0F900FBEEA
:1002E0000F901F9018951F920F920FB60F920BB69A
:1002F0000F9211242F933F934F935F936F937F93AC
:100300008F939F93AF93BF93EF93FF93E091570227
:10031000F0915802309709F00995FF91EF91BF9144
:10032000AF919F918F917F916F915F914F913F918D
:100330002F910F900BBE0F900FBE0F901F9018952E
:1003400083B7806483BF83B7877F83BF83B78F7E84
:1003500083BF83B7806283BF089581BF089529EF6B
:1003600021BF9093600280935F02089583B78160FC
:1003700083BF83B7826083BF83B78B7F83BF0895BA
:10038000982F853648F48FEF989FC001112464E6BA
:1003900070E00E94CB0961BF089583B78E7F83BF51
:1003A00083B78D7F83BF83B78B7F83BF089500970B
:1003B00021F090935E0280935D020895009721F0F2
:1003C00090935C0280935B020895813051F08130FC
:1003D00028F0823061F0833099F40CC085B58F7BB2
:1003E00002C085B5806485BD85B5877F08C085B5A9
:1003F0008F7B02C085B5806485BD85B5886085BD6D
:1004000085B5887F85BD85B56770862B85BD0895C8
:10041000813051F0813028F0823061F08330B9F4BE
:1004200010C085B58F7E02C085B5806185BD85B55C
:100430008F7D05C085B58F7E85BD85B5806285BD04
:10044000089585B5806185BD85B5806285BD0895B7
:10045000982F853648F48FEF989FC001112464E6E9
:1004600070E00E94CB0963BD0895823089F083302B
:1004700028F4882351F08130A9F528C08430B9F0E0
:10048000843060F0853071F515C08FB58E7F20C047
:100490008FB58E7F8FBD8FB58D7F11C08FB58E7F4D
:1004A0008FBD8FB58D7F8FBD8EB5886017C08FB51E
:1004B0008E7F02C08FB581608FBD8FB582608FBD8A
:1004C0008EB588608EBD8EB580610BC08FB58160A2
:1004D0008FBD8FB58D7F8FBD8EB5877F8EBD8EB55D
:1004E0008F7E8EBD8EB5887F8EBD8EB56770862B54
:1004F0008EBD0895813069F0813028F08230A1F0FE
:100500008330F9F418C08FB58F7B8FBD8FB58F778F
:1005100010C08FB580648FBD8FB58F778FBD8AEF88
:1005200090E09BBD8ABD08958FB58F7B8FBD8FB541
:1005300080688FBD08958FB580648FBD8FB580684A
:100540008FBD0895813051F0813028F0823061F004
:100550008330B9F410C08FB58F7E02C08FB5806133
:100560008FBD8FB58F7D05C08FB58F7E8FBD8FB549
:1005700080628FBD08958FB580618FBD8FB5806219
:100580008FBD0895882319F0813041F404C08EB5E1
:1005900080648EBD08958EB58F7B8EBD089587B71C
:1005A000846087BF089587B78B7F87BF089587B71B
:1005B000806187BF089587B78F7E87BF089587B70B
:1005C000886087BF089587B7877F87BF089587B7FB
:1005D000806287BF089587B78F7D87BF089508958C
:1005E00090936202809361020895089508951F9286
:1005F0000F920FB60F9211240F900FBE0F901F9005
:1006000018951F920F920FB60F9211240F900FBEE4
:100610000F901F9018951F920F920FB60F920BB666
:100620000F9211242F933F934F935F936F937F9378
:100630008F939F93AF93BF93EF93FF93E0916102EA
:10064000F0916202309709F00995FF91EF91BF9107
:10065000AF919F918F917F916F915F914F913F915A
:100660002F910F900BBE0F900FBE0F901F901895FB
:1006700090E09DBD8CBD08956E9A6D986C9A6B98B4
:100680006A98689A6998709808958FB9779BFECF99
:100690008FB108956C9A689A699870986B9A6A9A63
:1006A0006D9A6E9A08956F9A909364028093630294
:1006B00050936602409365026FB908951F920F929E
:1006C0000FB60F920BB60F9211242F933F934F93B7
:1006D0005F936F937F938F939F93AF93BF93EF93AA
:1006E000FF93E0916302F091640209958FB1E0916C
:1006F0006502F09166028083FF91EF91BF91AF9107
:100700009F918F917F916F915F914F913F912F9129
:100710000F900BBE0F900FBE0F901F9018951F9358
:10072000182F8CE060E00E94BE047699FECFEDE2C7
:10073000F0E01283779BFECF8CE061E00E94BE0464
:100740008FB11F9108956E9A6D9888E061E00E94C4
:10075000BE046C9A6B986A98689A69987098089524
:10076000E6ECF1E041E050E08081823009F46DC0B8
:10077000833030F4882359F0813009F0F0C036C05E
:10078000833009F491C0843009F0E9C0BBC0828194
:10079000882359F42AB3CA01018002C0880F991F27
:1007A0000A94E2F7282B2ABBDAC0813061F42AB31D
:1007B000CA01018002C0880F991F0A94E2F7809550
:1007C00082238ABBCCC0823009F0C9C03AB3CA01C7
:1007D000018002C0880F991F0A94E2F7282F209504
:1007E00023232ABB2BB3822B8BBBB9C082818823E6
:1007F00059F427B3CA01018002C0880F991F0A94D7
:10080000E2F7282B27BBABC0813061F427B3CA01C4
:10081000018002C0880F991F0A94E2F78095822315
:1008200087BB9DC0823009F09AC037B3CA010180EE
:1008300002C0880F991F0A94E2F7282F20952323DE
:1008400027BB28B3822B88BB8AC08281882359F4B6
:1008500024B3CA01018002C0880F991F0A94E2F7ED
:10086000282B24BB7CC0813061F424B3CA010180F1
:1008700002C0880F991F0A94E2F78095822384BBF7
:100880006EC0823009F06BC034B3CA01018002C06F
:10089000880F991F0A94E2F7282F2095232324BB61
:1008A00025B3822B85BB5BC08281882359F421B399
:1008B000CA01018002C0880F991F0A94E2F7282B11
:1008C00021BB4DC0813061F421B3CA01018002C057
:1008D000880F991F0A94E2F78095822381BB3FC05D
:1008E0008230E9F531B3CA01018002C0880F991F37
:1008F0000A94E2F7282F2095232321BB22B3822BD1
:1009000082BB2DC08281882359F422B1CA010180A3
:1009100002C0880F991F0A94E2F7282B22B91FC042
:10092000813061F422B1CA01018002C0880F991F91
:100930000A94E2F78095822382B911C0823079F45B
:1009400032B1CA01018002C0880F991F0A94E2F7F0
:10095000282F2095232322B923B1822B83B93396E4
:1009600082E0E638F80709F0FFCE08958FB7806877
:100970008FBF08958FB78F778FBF0895982F969563
:1009800096959695923009F44DC0933030F49923A2
:1009900059F0913009F0A2C026C0933009F461C02B
:1009A000943009F09BC07CC0482F50E0662369F06A
:1009B0002BB34770507081E090E002C0880F991F00
:1009C0004A95E2F7282B2BBB08952BB34770507044
:1009D00081E090E002C0880F991F4A95E2F7809568
:1009E00082238BBB0895482F50E0662369F028B31B
:1009F0004770507081E090E002C0880F991F4A95BF
:100A0000E2F7282B28BB089528B34770507081E087
:100A100090E002C0880F991F4A95E2F780958223E3
:100A200088BB0895482F50E0662369F025B34770CE
:100A3000507081E090E002C0880F991F4A95E2F75C
:100A4000282B25BB089525B34770507081E090E0B6
:100A500002C0880F991F4A95E2F78095822385BBD3
:100A60000895482F50E0662369F022B34770507014
:100A700081E090E002C0880F991F4A95E2F7282B89
:100A800022BB089522B34770507081E090E002C00D
:100A9000880F991F4A95E2F78095822382BB0895BB
:100AA000482F50E0662369F023B14770507081E011
:100AB00090E002C0880F991F4A95E2F7282B23B9CE
:100AC000089523B14770507081E090E002C0880F14
:100AD000991F4A95E2F78095822383B90895382FAC
:100AE0003770869586958695823019F1833030F47B
:100AF000882349F0813009F03CC010C0833021F1D7
:100B00008430B9F52CC02BB381E090E002C0880F8F
:100B1000991F3A95E2F728272BBB089528B381E067
:100B200090E002C0880F991F3A95E2F7282728BB6A
:100B3000089525B381E090E002C0880F991F3A958F
:100B4000E2F7282725BB089522B381E090E002C098
:100B5000880F991F3A95E2F7282722BB089523B101
:100B600081E090E002C0880F991F3A95E2F72827AC
:100B700023B90895282F277086958695869582300B
:100B800089F0833028F4882349F0813029F408C0A3
:100B9000833051F0843089F080E0089589B305C036
:100BA00086B303C083B301C080B390E002C09595C3
:100BB00087952A95E2F78170089581B190E002C08F
:100BC000959587952A95E2F781700895843059F0BC
:100BD0008930A9F08330F1F482E161E00E94BE0423
:100BE00083E160E006C082E160E00E94BE0483E130
:100BF00061E00E94BE0483E60E942802089582E11B
:100C000060E00E94BE0483E160E00E94BE0480E0D8
:100C10000E94280208950E94C00184E161E00E94C0
:100C2000BE0485E160E00E94BE04089580E00E9459
:100C3000C00184E160E00E94BE0485E160E00E94A2
:100C4000BE04089583E60E94C00184E160E00E9432
:100C5000BE0485E161E00E94BE04089583E60E941F
:100C6000C00184E161E00E94BE0485E160E00E9471
:100C7000BE040895813019F48CE060E002C08CE07D
:100C800061E00E94BE040895CF92DF92EF92FF923E
:100C90000F931F93182F6A017B01022F81E00E949E
:100CA0003A0682E00E944503812F0E944503D70146
:100CB000C60133E0B695A795979587953A95D1F7F4
:100CC0001C2D1295110F107E0023E1F00E944503A8
:100CD000D701C6012BE1B695A795979587952A95DB
:100CE000D1F7182B812F88600E94450383E1F69489
:100CF000E794D794C7948A95D1F78C2D0E94450329
:100D000080E003C00E944503812F0E94450380E0DC
:100D10000E943A061F910F91FF90EF90DF90CF90C5
:100D200008958F929F92BF92CF92DF92EF92FF929F
:100D30000F931F93CF93DF936A017B01B22E48017B
:100D400081E00E943A0682E00E94450380E30E940F
:100D500045038B2D82958695869583700E94450369
:100D6000D701C60143E0B695A795979587954A9513
:100D7000D1F70E9445038C2D8295880F807E0E94BA
:100D8000450380E00E94450380E00E9445038B2DCF
:100D90008F700E94450310E0CB2DD0E0CF70D07053
:100DA00006C0E80DF91D80810E9445031F5FE12FF9
:100DB000F0E0EC17FD07ACF380E00E943A0681E01A
:100DC0000E943A0681E80E94450380E00E943A06AC
:100DD000DF91CF911F910F91FF90EF90DF90CF9017
:100DE000BF909F908F900895FF920F931F93182F9D
:100DF000062FF42E81E00E943A0685E00E9445030A
:100E0000812F0E944503802F0E9445038F2D0E9451
:100E1000450380E00E943A061F910F91FF900895CC
:100E200081E00E943A0680EC0E94450380E00E9427
:100E30003A0608950F931F93182F062F81E00E9402
:100E40003A0682E00E944503812F0E944503802FCD
:100E50000E94450380E00E943A061F910F91089579
:100E60000F931F93982F162F042F8AE2692F0E9449
:100E70001A0789E2612F0E941A0788E2602F0E94F8
:100E80001A071F910F910895CF93DF9381E00E947D
:100E90003A0683E00E94450380E60E944503C8E7C6
:100EA000D2E080E00E944503899382E0C638D807EB
:100EB000C1F780E00E943A068CE260E00E941A07C7
:100EC000DF91CF9108951F93182F81E00E943A0679
:100ED00083E00E944503812F0E94450380E00E9429
:100EE0004503182F80E00E943A06812F1F91089534
:100EF0001F93182F482F4295440F407E8FE060EEDD
:100F00000E94F4068EE00E946307829586958770A2
:100F10008117C1F71F9108950E94A3030E94100733
:100F20008FE064E80E941A078EE00E9463078295B2
:100F3000869587708430C1F780E861EB45E00E94B8
:100F4000300780E240E050E060E070E021E00E9485
:100F5000440684E240E050E060E070E021E00E945E
:100F600044068BE261E00E941A0780E00E94780745
:100F700008950E94A3030E9410078EE00E94630759
:100F80008295869587708430C1F78FE064E80E946F
:100F90001A0780E861EB45E00E94300780E00E947C
:100FA000780708951F938AE10E94BA05882359F5AE
:100FB0000E94440780917A028295869587708130DD
:100FC00039F40E946F0580917E02809371021BC0EC
:100FD000823039F40E946F0580917E028093720204
:100FE00012C0833081F40E946F0510917E0211308F
:100FF00051F410926A0210926B020E94160610932E
:101000006902109267021F9108950F931F93DF9357
:10101000CF9300D00F92CDB7DEB780916A02909146
:1010200071028A839B8380916B02898380916C0219
:101030008823F9F080E00E946F0580916A0288237E
:1010400019F0813099F407C080E041E050E060E0A1
:1010500070E021E006C080E041E050E060E070E038
:1010600022E08E010E5F1F4F0E94910610926C02CB
:1010700017C080916D02882399F080916B028823BC
:1010800011F0813059F480E042E050E060E070E01F
:1010900021E08E010F5F1F4F0E94910610926D029A
:1010A0000F900F900F90CF91DF911F910F910895A6
:1010B0000E9405080E94D20708950F931F93809104
:1010C00069028130B9F480916A02882399F4809191
:1010D000670280937002813041F0813018F08230D5
:1010E00049F406C00E94160605C00E942E0602C0E2
:1010F0000E94220600916A02013009F04CC0009360
:101100007502109167021093730280916F02882319
:1011100059F51230D1F0133028F4112341F0113079
:1011200019F507C0133099F01430F1F412C084E1BE
:1011300011C08EE180937102809374020E940B06AD
:1011400010936F0210936C020FC082E303C080E51E
:1011500001C083E680937102809374020E940B06A3
:1011600000936F0200936C0280916E02882359F401
:1011700080E091E00E94020188E291E00E94020179
:1011800081E080936E0280916F02813021F4809122
:1011900071020E940B0680916A02882361F480919B
:1011A0007502813041F4809174020E940B06109206
:1011B0006F02109275021F910F910895909168022D
:1011C000913009F040C080916702853010F490930F
:1011D000690280916702853029F481E080936A0278
:1011E00080936B0280916702863069F48AE391E014
:1011F0000E94020110926A0210926B0281E08093B9
:10120000690280936C0280916702873059F482E60C
:1012100091E00E94020181E080936B0210926902CA
:1012200080936D0280916702883059F484E791E0E1
:101230000E94020110926B0281E080936902809308
:101240006D02109268020895809169028130B1F4B4
:1012500080916A02882391F48091670280937002E2
:10126000843029F0893039F0833041F402C084E0C1
:1012700003C083E001C089E00E94E60580916B0213
:10128000813081F480917202853019F484E061E04C
:1012900004C0863029F484E060E00E94BE04089512
:1012A0000E94E60508950E94DE080E945D080E94E3
:1012B000240908950E94B0030E94A0010E94B60173
:1012C00081E063E00E94E50182E00E9408020E9442
:1012D000F1000E94B9070E948C0788E799E00E94FC
:1012E00038010E94300187E891E00E9402010895D0
:1012F0000E940F018093670281E080936802089545
:101300008EEE90E064E170E041E020E00E94670032
:1013100088EE90E068E270E041E020E00E94670023
:101320008BEE90E062E370E041E02AE00E9467000B
:1013300085EE90E065E070E041E020E00E9467000B
:10134000089583E063E00E94350281E00E947A0202
:1013500078940E94D70289EB99E00E94F0020E94E3
:101360005A0908950E94A1090E9480090E94BC00A8
:10137000FDCF80917602909177020196909377024B
:1013800080937602059730F00E949B0010927702BE
:10139000109276020895AA1BBB1B51E107C0AA1F39
:1013A000BB1FA617B70710F0A61BB70B881F991F06
:1013B0005A95A9F780959095BC01CD010895F894B0
:0213C000FFCF5D
:1013C2000D0A20414343204953204F4E205052459D
:1013D2005353203620544F204F4646205448452030
:1013E2004D4F4445200D0A000D0A20656E7465724A
:1013F200207370656564200D0A000D0A2041434385
:10140200204953204F46462052455455524E2054AF
:101412004F204D414E4955414C204D4F4445200DE2
:101422000A000D0A206C616E656B656570206F6E37
:10143200200D0A000D0A206C616E656B65657020D7
:101442006F4646200D0A00352F414343204F4E2060
:101452002D20362F414343204F4646202D20372F43
:101462006C616E65206F6E202D20382F6C616E6569
:10147200206F6666202D20392F73617665207A6F82
:101482006E65200D0A00000000000100000200004D
:101492000300000400000500000600000700010030
:1014A2000001010001020001030101040001050124
:1014B2000106000107000200000201000202000210
:1014C20003000204000205000206000207000300F6
:1014D20000030100030200030300030400030500EC
:1014E20003060003070004000104010004020004D3
:0E14F2000300040400040500040600040700C3
:00000001FF
