:100000000C9446000C9465000C9465000C946500FB
:100010000C9465000C9465000C9465000C946500CC
:100020000C9465000C9465000C9465000C94FF1012
:100030000C948D100C94C6100C9454100C94C11296
:100040000C9484120C94F4130C9465000C946500C9
:100050000C9465000C9465000C9465000C9465008C
:100060000C9465000C9465000C9465000C9465007C
:100070000C9465000C9465000C9465000C9465006C
:100080000C9465000C9465000C94650011241FBE4F
:10009000CFEFD0E1DEBFCDBF12E0A0E0B1E0E8E3FA
:1000A000FAE300E00BBF02C007900D92A838B10739
:1000B000D9F712E0A8E8B2E001C01D92A03EB10756
:1000C000E1F70E94A21C0C941A1D0C940000EF9200
:1000D000FF920F931F937B018C0120E030E040E002
:1000E0005FE40E94130488238CF0C801B70120E06C
:1000F00030E040E05FE40E94DF010E9401059B01C7
:10010000AC01205030404040504806C0C801B70103
:100110000E9401059B01AC01B901CA011F910F9119
:10012000FF90EF900895A0E0B0E0E9E9F0E00C94D2
:10013000E31CDC012B01FA019C91923008F439C1D7
:10014000EB018881823008F433C1943069F4843043
:1001500009F02FC111969C9111978981981709F484
:1001600028C1A0E0B1E025C1843009F421C182306A
:10017000A9F4923009F01DC19A01AD0188E0EA01AD
:100180000990AE01E90109929E018150C1F7E20197
:10019000898111969C918923818308C1923009F449
:1001A00007C112962D903C901397EB018A819B8199
:1001B0001496AD90BD90CD90DC901797EC80FD80AB
:1001C0000E811F819101281B390BB90137FF04C033
:1001D00066277727621B730B603271050CF061C0D4
:1001E000121613066CF537014801062E04C09694CA
:1001F0008794779467940A94D2F721E030E040E046
:1002000050E004C0220F331F441F551F6A95D2F7D8
:1002100021503040404050402E213F214023512367
:10022000211531054105510521F021E030E040E084
:1002300050E079018A01E628F728082919293CC0ED
:10024000232BD1F1260E371E35014601062E04C0A0
:1002500096948794779467940A94D2F721E030E0DB
:1002600040E050E004C0220F331F441F551F6A9521
:10027000D2F721503040404050402A213B214C21B0
:100280005D21211531054105510521F021E030E0C6
:1002900040E050E059016A01A628B728C828D928AB
:1002A0000BC0821593052CF01C01AA24BB24650108
:1002B00003C0EE24FF24870111969C91D201119670
:1002C0008C91981709F445C0992339F0A80197013A
:1002D0002A193B094C095D0906C0A60195012E1992
:1002E0003F09400B510B57FD08C011823382228217
:1002F00024833583468357831DC081E08183338205
:10030000228288279927DC01821B930BA40BB50B53
:1003100084839583A683B7830DC0220F331F441FA8
:10032000551F2483358346835783828193810197A8
:10033000938382832481358146815781DA01C90103
:100340000197A109B1098F5F9F4FAF4FBF4328F3BA
:100350000BC0918333822282EA0CFB1C0C1D1D1DF5
:10036000E482F5820683178383E0808324813581CC
:100370004681578157FF1AC0C901AA2797FDA0954A
:10038000BA2F81709070A070B070569547953795D0
:100390002795822B932BA42BB52B84839583A6833F
:1003A000B78382819381019693838283DF0101C0A9
:1003B000D201CD01CDB7DEB7E2E10C94FF1CA0E283
:1003C000B0E0E5EEF1E00C94EF1C69837A838B8357
:1003D0009C832D833E834F835887E9E0EE2EF12CDA
:1003E000EC0EFD1ECE010196B7010E94F2068E01B1
:1003F0000F5E1F4FCE010596B8010E94F2068A8952
:1004000091E089278A8BC701B801AE01475E5F4F33
:100410000E9493000E941D06A096E6E00C940B1D1E
:10042000A0E2B0E0E6E1F2E00C94EF1C69837A838D
:100430008B839C832D833E834F835887F9E0EF2E77
:10044000F12CEC0EFD1ECE010196B7010E94F206C2
:100450008E010F5E1F4FCE010596B8010E94F20675
:10046000C701B801AE01475E5F4F0E9493000E9432
:100470001D06A096E6E00C940B1DA0E2B0E0E3E4BC
:10048000F2E00C94E31C69837A838B839C832D8335
:100490003E834F835887CE010196BE01675F7F4F31
:1004A0000E94F206CE010596BE016F5E7F4F0E944C
:1004B000F2069985923088F089898230C8F09430AC
:1004C00019F4823051F404C0843029F4923081F45C
:1004D00080E091E0C6C0923049F420E09A858A8994
:1004E000981321E02A87CE010996BBC0823049F4D7
:1004F00020E09A858A89981321E02A8BCE014196C3
:10050000B0C02D843E844F8458886D887E888F8843
:10051000988CEE24FF248701AA24BB24650140E0C7
:1005200050E060E070E0E0E0F0E0C10181709070C8
:10053000892BE9F0E60CF71C081D191D9A01AB0187
:100540002A0D3B1D4C1D5D1D80E090E0A0E0B0E059
:10055000E614F7040805190520F481E090E0A0E016
:10056000B0E0BA01A901480F591F6A1F7B1FAA0CEE
:10057000BB1CCC1CDD1C97FE08C081E090E0A0E015
:10058000B0E0A82AB92ACA2ADB2A3196E032F1055E
:1005900049F0660C771C881C991C56944794379434
:1005A0002794C3CFFA85EA892B893C898B859C8562
:1005B000280F391F2E5F3F4F17C0CA0181709070FE
:1005C000892B61F016950795F794E79480E090E009
:1005D000A0E0B0E8E82AF92A0A2B1B2B769567954C
:1005E000579547952F5F3F4F77FDE7CF0CC0440FDE
:1005F000551F661F771F17FD4160EE0CFF1C001F83
:10060000111F21503040403090E0590790E06907B9
:1006100090E4790760F32B8F3C8FDB01CA018F7761
:100620009070A070B07080349105A105B10561F49F
:1006300047FD0AC0E114F1040105110529F0405CF1
:100640005F4F6F4F7F4F40781A8EFE1711F081E099
:100650008A8F4D8F5E8F6F8F78A383E0898FCE0155
:1006600049960E941D06A096E2E10C94FF1CA8E1A9
:10067000B0E0EDE3F3E00C94EB1C69837A838B83A9
:100680009C832D833E834F835887B9E0EB2EF12C5A
:10069000EC0EFD1ECE010196B7010E94F2068E01FE
:1006A0000F5E1F4FCE010596B8010E94F206298504
:1006B000223008F47EC03989323010F4B8017CC091
:1006C0008A859A8989278A87243011F0223031F46B
:1006D000231709F06EC060E071E06EC0343039F469
:1006E0001D861E861F86188A1C861B8604C0323013
:1006F00021F484E08987B7015FC02B853C858B8915
:100700009C89281B390B3C872B87ED84FE840F8541
:100710001889AD88BE88CF88D88CEA14FB040C05F4
:100720001D0540F4EE0CFF1C001F111F215030402E
:100730003C872B8720E030E040E050E080E090E014
:10074000A0E0B0E460E070E0EA14FB040C051D05D5
:1007500040F0282B392B4A2B5B2BEA18FB080C099D
:100760001D09B695A79597958795EE0CFF1C001F60
:10077000111F6F5F7F4F6F31710531F7DA01C901CA
:100780008F779070A070B07080349105A105B1058D
:1007900061F427FD0AC0E114F1040105110529F0F7
:1007A000205C3F4F4F4F5F4F20782D873E874F870C
:1007B000588BBE01675F7F4FCB010E941D06689674
:1007C000EAE00C94071DA8E1B0E0E9EEF3E00C9438
:1007D000EF1C69837A838B839C832D833E834F83B5
:1007E000588789E0E82EF12CEC0EFD1ECE01019613
:1007F000B7010E94F2068E010F5E1F4FCE010596D3
:10080000B8010E94F2068985823040F089898230E1
:1008100028F0C701B8010E946A0701C08FEF6896EF
:10082000E6E00C940B1DA8E1B0E0E9E1F4E00C94E3
:10083000EF1C69837A838B839C832D833E834F8354
:10084000588789E0E82EF12CEC0EFD1ECE010196B2
:10085000B7010E94F2068E010F5E1F4FCE01059672
:10086000B8010E94F2068985823040F08989823081
:1008700028F0C701B8010E946A0701C08FEF68968F
:10088000E6E00C940B1DA8E1B0E0E9E4F4E00C9480
:10089000EF1C69837A838B839C832D833E834F83F4
:1008A000588789E0E82EF12CEC0EFD1ECE01019652
:1008B000B7010E94F2068E010F5E1F4FCE01059612
:1008C000B8010E94F2068985823040F08989823021
:1008D00028F0C701B8010E946A0701C081E068964C
:1008E000E6E00C940B1DA8E1B0E0E9E7F4E00C941D
:1008F000EF1C69837A838B839C832D833E834F8394
:10090000588789E0E82EF12CEC0EFD1ECE010196F1
:10091000B7010E94F2068E010F5E1F4FCE010596B1
:10092000B8010E94F2068985823040F089898230C0
:1009300028F0C701B8010E946A0701C081E06896EB
:10094000E6E00C940B1DA8E0B0E0E9EAF4E00C94BA
:10095000EC1C9B01AC0183E08983DA01C901882783
:10096000B7FD83959927AA27BB27B82E21153105F6
:100970004105510519F482E089833AC08823A9F022
:10098000203080E0380780E0480780E8580729F4E5
:1009900060E070E080E09FEC30C0EE24FF2487012F
:1009A000E21AF30A040B150B02C079018A018EE1E9
:1009B000C82ED12CDC82CB82ED82FE820F83188779
:1009C000C801B7010E94CE0501971816190684F4D4
:1009D000082E04C0EE0CFF1C001F111F0A94D2F752
:1009E000ED82FE820F831887C81AD90ADC82CB8277
:1009F000BA82CE0101960E941D062896E9E00C9469
:100A0000081DACE0B0E0E7E0F5E00C94F31C69836E
:100A10007A838B839C83CE010196BE016B5F7F4FEF
:100A20000E94F2068D81823061F1823050F1843073
:100A300021F48E81882351F12EC02F81388537FD16
:100A400020C06E812F3131051CF06623F9F023C0E0
:100A50008EE190E0821B930B29853A854B855C855E
:100A600004C056954795379527958A95D2F7662302
:100A7000B1F050954095309521953F4F4F4F5F4FC6
:100A80000EC020E030E040E050E009C02FEF3FEF23
:100A90004FEF5FE704C020E030E040E050E8B901EC
:100AA000CA012C96E2E00C940F1DA8E0B0E0EBE543
:100AB000F5E00C94EB1C7B018C016115710581053F
:100AC000910519F482E0898360C083E089838EE117
:100AD000C82ED12CDC82CB82ED82FE820F83188758
:100AE000C801B7010E94CE05FC013197F7FF3BC05A
:100AF000222733272E1B3F0B57016801022E04C00B
:100B0000D694C794B794A7940A94D2F740E050E0E3
:100B100060E070E081E090E0A0E0B0E004C0880F09
:100B2000991FAA1FBB1F2A95D2F70197A109B109E6
:100B30008E219F21A023B1230097A105B10521F0AB
:100B400041E050E060E070E04A295B296C297D2992
:100B50004D835E836F8378878EE190E08E1B9F0BC1
:100B60009C838B8312C0309781F00E2E04C0EE0C54
:100B7000FF1C001F111F0A94D2F7ED82FE820F8323
:100B80001887CE1ADF0ADC82CB821A82CE01019648
:100B90000E941D062896EAE00C94071DEF92FF9232
:100BA0000F931F937B018C0180E0E81680E0F8062C
:100BB00081E0080780E0180788F48FEFE816F10459
:100BC0000105110531F028F088E090E0A0E0B0E0E8
:100BD00017C080E090E0A0E0B0E012C080E0E8162E
:100BE00080E0F80680E0080781E0180728F088E137
:100BF00090E0A0E0B0E004C080E190E0A0E0B0E0D0
:100C000020E230E040E050E0281B390B4A0B5B0B40
:100C100004C016950795F794E7948A95D2F7F701E3
:100C2000E85FFE4F8081281B310941095109C90144
:100C30001F910F91FF90EF900895DF92EF92FF9236
:100C40000F931F93FC01E480F58006811781D1800A
:100C50008081823048F480E090E0A0E1B0E0E82AB2
:100C6000F92A0A2B1B2BA5C0843009F49FC08230BF
:100C700021F4EE24FF24870105C0E114F1040105ED
:100C8000110519F4E0E0F0E096C0628173819FEFF6
:100C9000623879070CF05BC022E83FEF261B370B68
:100CA0002A3131052CF020E030E040E050E02AC04D
:100CB000B801A701022E04C0769567955795479510
:100CC0000A94D2F781E090E0A0E0B0E004C0880F81
:100CD000991FAA1FBB1F2A95D2F70197A109B10935
:100CE0008E219F21A023B1230097A105B10521F0FA
:100CF00081E090E0A0E0B0E09A01AB01282B392B15
:100D00004A2B5B2BDA01C9018F779070A070B0700D
:100D100080349105A105B10539F427FF09C0205C95
:100D20003F4F4F4F5F4F04C0215C3F4F4F4F5F4FCE
:100D3000E0E0F0E02030A0E03A07A0E04A07A0E4BD
:100D40005A0710F0E1E0F0E079018A0127C060382D
:100D5000710564F5FB01E158FF4FD801C7018F779A
:100D60009070A070B07080349105A105B10539F480
:100D7000E7FE0DC080E490E0A0E0B0E004C08FE3A7
:100D800090E0A0E0B0E0E80EF91E0A1F1B1F17FF5D
:100D900005C016950795F794E794319687E0169568
:100DA0000795F794E7948A95D1F705C0EE24FF24C0
:100DB0008701EFEFF0E06E2F679566276795902F1C
:100DC0009F77D794DD24D7948E2F8695492F462B75
:100DD000582F5D29B701CA011F910F91FF90EF9025
:100DE000DF900895FC01DB01408151812281622F57
:100DF0006F7770E0221F2227221F9381892F880F8F
:100E0000822B282F30E0991F9927991F11969C93C8
:100E1000119721153105A9F5411551056105710598
:100E200011F482E037C082E89FEF13969C938E9373
:100E300012979A01AB0167E0220F331F441F551F21
:100E40006A95D1F783E08C930DC0220F331F441FA6
:100E5000551F12968D919C911397019713969C9311
:100E60008E931297203080E0380780E0480780E4B6
:100E7000580758F314962D933D934D935C93179711
:100E800008952F3F310579F441155105610571052C
:100E900019F484E08C93089564FF03C081E08C937F
:100EA00012C01C9210C02F57304013963C932E93C3
:100EB000129783E08C9387E0440F551F661F771FBE
:100EC0008A95D1F7706414964D935D936D937C93DE
:100ED000179708951F93DC01FB019C91923008F451
:100EE00047C08081823008F443C0943051F4119699
:100EF0001C91843099F58181682F70E0611B710924
:100F00003FC0843021F0923031F48230B9F18181D8
:100F1000882389F12DC011961C9111978230F1F030
:100F200081811817D9F412962D913C9113978281E3
:100F300093818217930794F028173907BCF0149611
:100F40008D919D910D90BC91A02D2481358146817C
:100F50005781281739074A075B0718F4112341F016
:100F60000AC082179307A407B50740F4112319F0AC
:100F700061E070E005C06FEF7FEF02C060E070E0FD
:100F8000CB011F910895DF93CF9300D000D0CDB750
:100F9000DEB71A8219821A82198255C329813A81D1
:100FA000C901880F991F820F931FFC01E85FFD4F55
:100FB0008081282F30E03C832B838B819C81823081
:100FC000910509F45DC12B813C81233031055CF42E
:100FD0008B819C810097A1F02B813C8121303105D0
:100FE00009F4AEC02BC38B819C818330910509F439
:100FF000E7C12B813C812430310509F481C21EC335
:1010000029813A81C901880F991F820F931FFC0122
:10101000E65FFD4F80818823F1F4AAE3B0E0EAE3C4
:10102000F0E08081482F29813A81C901880F991FFA
:10103000820F931FFC01E75FFD4F8081282F30E076
:1010400081E090E0022E02C0880F991F0A94E2F717
:10105000842B8C93F3C229813A81C901880F991F8F
:10106000820F931FFC01E65FFD4F80818130F9F410
:10107000AAE3B0E0EAE3F0E08081482F29813A81D9
:10108000C901880F991F820F931FFC01E75FFD4F75
:101090008081282F30E081E090E0022E02C0880F8E
:1010A000991F0A94E2F7809584238C93C7C2298103
:1010B0003A81C901880F991F820F931FFC01E65FD7
:1010C000FD4F8081823009F0B9C2AAE3B0E0EAE3C3
:1010D000F0E08081482F29813A81C901880F991F4A
:1010E000820F931FFC01E75FFD4F8081282F30E0C6
:1010F00081E090E002C0880F991F2A95E2F7809561
:1011000084238C93ABE3B0E0EBE3F0E08081482FE5
:1011100029813A81C901880F991F820F931FFC0111
:10112000E75FFD4F8081282F30E081E090E0022EC4
:1011300002C0880F991F0A94E2F7842B8C937EC219
:1011400029813A81C901880F991F820F931FFC01E1
:10115000E65FFD4F80818823F1F4A7E3B0E0E7E389
:10116000F0E08081482F29813A81C901880F991FB9
:10117000820F931FFC01E75FFD4F8081282F30E035
:1011800081E090E0022E02C0880F991F0A94E2F7D6
:10119000842B8C9353C229813A81C901880F991FEE
:1011A000820F931FFC01E65FFD4F80818130F9F4CF
:1011B000A7E3B0E0E7E3F0E08081482F29813A819E
:1011C000C901880F991F820F931FFC01E75FFD4F34
:1011D0008081282F30E081E090E0022E02C0880F4D
:1011E000991F0A94E2F7809584238C9327C2298162
:1011F0003A81C901880F991F820F931FFC01E65F96
:10120000FD4F8081823009F019C2A7E3B0E0E7E327
:10121000F0E08081482F29813A81C901880F991F08
:10122000820F931FFC01E75FFD4F8081282F30E084
:1012300081E090E002C0880F991F2A95E2F780951F
:1012400084238C93A8E3B0E0E8E3F0E08081482FAA
:1012500029813A81C901880F991F820F931FFC01D0
:10126000E75FFD4F8081282F30E081E090E0022E83
:1012700002C0880F991F0A94E2F7842B8C93DEC179
:1012800029813A81C901880F991F820F931FFC01A0
:10129000E65FFD4F80818823F1F4A4E3B0E0E4E34E
:1012A000F0E08081482F29813A81C901880F991F78
:1012B000820F931FFC01E75FFD4F8081282F30E0F4
:1012C00081E090E0022E02C0880F991F0A94E2F795
:1012D000842B8C93B3C129813A81C901880F991F4E
:1012E000820F931FFC01E65FFD4F80818130F9F48E
:1012F000A4E3B0E0E4E3F0E08081482F29813A8163
:10130000C901880F991F820F931FFC01E75FFD4FF2
:101310008081282F30E081E090E0022E02C0880F0B
:10132000991F0A94E2F7809584238C9387C12981C1
:101330003A81C901880F991F820F931FFC01E65F54
:10134000FD4F8081823009F079C1A4E3B0E0E4E38D
:10135000F0E08081482F29813A81C901880F991FC7
:10136000820F931FFC01E75FFD4F8081282F30E043
:1013700081E090E002C0880F991F2A95E2F78095DE
:1013800084238C93A5E3B0E0E5E3F0E08081482F6F
:1013900029813A81C901880F991F820F931FFC018F
:1013A000E75FFD4F8081282F30E081E090E0022E42
:1013B00002C0880F991F0A94E2F7842B8C933EC1D8
:1013C00029813A81C901880F991F820F931FFC015F
:1013D000E65FFD4F80818823F1F4A1E3B0E0E1E313
:1013E000F0E08081482F29813A81C901880F991F37
:1013F000820F931FFC01E75FFD4F8081282F30E0B3
:1014000081E090E0022E02C0880F991F0A94E2F753
:10141000842B8C9313C129813A81C901880F991FAC
:10142000820F931FFC01E65FFD4F80818130F9F44C
:10143000A1E3B0E0E1E3F0E08081482F29813A8127
:10144000C901880F991F820F931FFC01E75FFD4FB1
:101450008081282F30E081E090E0022E02C0880FCA
:10146000991F0A94E2F7809584238C93E7C0298121
:101470003A81C901880F991F820F931FFC01E65F13
:10148000FD4F8081823009F0D9C0A1E3B0E0E1E3F3
:10149000F0E08081482F29813A81C901880F991F86
:1014A000820F931FFC01E75FFD4F8081282F30E002
:1014B00081E090E002C0880F991F2A95E2F780959D
:1014C00084238C93A2E3B0E0E2E3F0E08081482F34
:1014D00029813A81C901880F991F820F931FFC014E
:1014E000E75FFD4F8081282F30E081E090E0022E01
:1014F00002C0880F991F0A94E2F7842B8C939EC038
:1015000029813A81C901880F991F820F931FFC011D
:10151000E65FFD4F80818823F1F4A2E2B0E0E2E2D1
:10152000F0E08081482F29813A81C901880F991FF5
:10153000820F931FFC01E75FFD4F8081282F30E071
:1015400081E090E0022E02C0880F991F0A94E2F712
:10155000842B8C9373C029813A81C901880F991F0C
:10156000820F931FFC01E65FFD4F80818130F9F40B
:10157000A2E2B0E0E2E2F0E08081482F29813A81E6
:10158000C901880F991F820F931FFC01E75FFD4F70
:101590008081282F30E081E090E0022E02C0880F89
:1015A000991F0A94E2F7809584238C9347C0298180
:1015B0003A81C901880F991F820F931FFC01E65FD2
:1015C000FD4F80818230D1F5A2E2B0E0E2E2F0E0AE
:1015D0008081482F29813A81C901880F991F820F84
:1015E000931FFC01E75FFD4F8081282F30E081E0F1
:1015F00090E002C0880F991F2A95E2F78095842316
:101600008C93A3E2B0E0E3E2F0E08081482F2981EF
:101610003A81C901880F991F820F931FFC01E75F70
:10162000FD4F8081282F30E081E090E0022E02C043
:10163000880F991F0A94E2F7842B8C9389819A81F1
:1016400001969A83898389819A81803491050CF46B
:10165000A5CC0F900F900F900F90CF91DF91089530
:10166000DF93CF93CDB7DEB727970FB6F894DEBFE1
:101670000FBECDBF9B838A837D836C834E832F8374
:1016800019828A819B81009719F483E0898368C05D
:101690008C819D8124E0813B920718F081E0898351
:1016A0005FC080918802853018F082E0898358C03D
:1016B00080918802282F30E0C901880F991F820F7E
:1016C000931F880F991FFC01E757FD4F8A819B816B
:1016D0009183808380918802282F30E04C81C9015A
:1016E000880F991F820F931F880F991FFC01E457E1
:1016F000FD4F408380918802282F30E0C901880F78
:10170000991F820F931F0196880F991FFC01E757BD
:10171000FD4F8E81808380918802282F30E0C9019F
:10172000880F991F820F931F880F991FFC01E357A1
:10173000FD4F84E1808380918802282F30E0C90129
:10174000880F991F820F931F880F991FFC01E25782
:10175000FD4F8F818083809188028F5F8093880204
:10176000898127960FB6F894DEBF0FBECDBFCF910B
:10177000DF910895DF93CF930F92CDB7DEB7198233
:1017800080C08981282F30E0C901880F991F820FFE
:10179000931F0196880F991FFC01E757FD4F808129
:1017A000882309F46BC08981282F30E0C901880F94
:1017B000991F820F931F880F991FFC01E357FD4F5C
:1017C00040818981282F30E0C901880F991F820F3D
:1017D000931F880F991FFC01E457FD4F8081481724
:1017E00078F18981282F30E0C901880F991F820F75
:1017F000931F0196880F991FFC01E757FD4F82E068
:1018000080838981482F50E08981282F30E0C901E9
:10181000880F991F820F931F880F991FFC01E257B1
:10182000FD4F8081282F2C5ECA01880F991F840FDD
:10183000951F880F991FFC01E357FD4F20831EC0A1
:101840008981482F50E08981282F30E0C901880F15
:10185000991F820F931F880F991FFC01E357FD4FBB
:101860008081282F2C5ECA01880F991F840F951F35
:10187000880F991FFC01E357FD4F208389818F5FFB
:101880008983909188028981891708F47ACF0F9013
:10189000CF91DF910895DF93CF930F92CDB7DEB74D
:1018A000198235C08981282F30E0C901880F991F1E
:1018B000820F931F0196880F991FFC01E757FD4F78
:1018C0008081823009F58981282F30E0C901880F95
:1018D000991F820F931F880F991FFC01E757FD4F37
:1018E0000190F081E02D09958981282F30E0C90110
:1018F000880F991F820F931F0196880F991FFC0173
:10190000E757FD4F81E0808389818F5F89839091C4
:1019100088028981891730F20F90CF91DF91089565
:10192000DF93CF93CDB7DEB70E94481ACF91DF91F6
:101930000895DF93CF93CDB7DEB70E94BE1ACF9143
:10194000DF910895DF93CF93CDB7DEB70E948C1A55
:10195000CF91DF910895DF93CF93CDB7DEB70E948B
:101960006B1BCF91DF910895DF93CF93CDB7DEB797
:101970000E94C71ACF91DF910895DF93CF9300D0D3
:1019800000D0CDB7DEB789836A838981282F30E004
:101990003C832B838B819C818230910509F456C056
:1019A0002B813C812330310554F48B819C8100973D
:1019B00099F02B813C812130310559F19DC08B81FB
:1019C0009C818330910509F45EC02B813C812430D9
:1019D000310509F475C090C0AFE4B0E0EFE4F0E089
:1019E00080818E7F8C93AFE4B0E0EFE4F0E0808103
:1019F0008D7F8C93AEE4B0E0EEE4F0E08081877FF1
:101A00008C93AEE4B0E0EEE4F0E080818F7E8C93C6
:101A100073C0AFE4B0E0EFE4F0E080818E7F8C93A0
:101A2000AFE4B0E0EFE4F0E080818D7F8C93AEE432
:101A3000B0E0EEE4F0E0808188608C93AEE4B0E04A
:101A4000EEE4F0E0808180618C9356C0AFE4B0E0BA
:101A5000EFE4F0E080818E7F8C93AFE4B0E0EFE4C0
:101A6000F0E080818D7F8C93AEE4B0E0EEE4F0E0B6
:101A7000808188608C93AEE4B0E0EEE4F0E0808199
:101A80008F7E8C9339C0AFE4B0E0EFE4F0E080816A
:101A90008E7F8C93AFE4B0E0EFE4F0E08081826071
:101AA0008C93AEE4B0E0EEE4F0E0808188608C934B
:101AB000AEE4B0E0EEE4F0E0808180618C931CC085
:101AC000AFE4B0E0EFE4F0E0808181608C93AFE4BC
:101AD000B0E0EFE4F0E0808182608C93AEE4B0E0AF
:101AE000EEE4F0E0808188608C93AEE4B0E0EEE458
:101AF000F0E0808180618C93AEE4B0E0EEE4F0E051
:101B00008081887F8C93AEE4B0E0EEE4F0E09081D9
:101B10008A81892B8C930F900F900F900F90CF910B
:101B2000DF910895DF93CF9300D00F92CDB7DEB74A
:101B300089838981282F30E03B832A838A819B8196
:101B4000009731F02A813B812130310581F01DC0A1
:101B5000AFE4B0E0EFE4F0E080818F7B8C93AFE402
:101B6000B0E0EFE4F0E0808180688C930EC0AFE4D9
:101B7000B0E0EFE4F0E0808180648C93AFE4B0E00B
:101B8000EFE4F0E0808180688C930F900F900F90CD
:101B9000CF91DF910895DF93CF9300D00F92CDB70F
:101BA000DEB789838981282F30E03B832A838A81AD
:101BB0009B81009731F02A813B812130310581F0F2
:101BC0001DC0AFE4B0E0EFE4F0E080818F7E8C9345
:101BD000AFE4B0E0EFE4F0E0808180628C930EC06F
:101BE000AFE4B0E0EFE4F0E0808180618C93AFE49B
:101BF000B0E0EFE4F0E0808180628C930F900F9072
:101C00000F90CF91DF910895DF93CF9300D0CDB7A0
:101C1000DEB79A838983EAE4F0E089819A8191832F
:101C200080830F900F90CF91DF910895DF93CF9332
:101C3000CDB7DEB7AEE4B0E0EEE4F0E080818E7FB9
:101C40008C93AEE4B0E0EEE4F0E080818D7F8C9385
:101C5000AEE4B0E0EEE4F0E080818B7F8C93CF9136
:101C6000DF9108950F931F93DF93CF9300D0CDB7EB
:101C7000DEB79A83898306E410E089819A819C010A
:101C800040E050E080E990EDA3E0B0E0BC01CD0180
:101C90000E94C11CDA01C9010197F8019183808378
:101CA0000F900F90CF91DF911F910F9108950F9397
:101CB0001F93DF93CF9300D000D0CDB7DEB76983F9
:101CC0007A838B839C8369817A818B819C8120E0DC
:101CD00030E048EC52E40E94730418160CF46EC015
:101CE0000AE410E0E6E4F0E0808191810196CC0105
:101CF000A0E0B0E0BC01CD010E945505DC01CB01A4
:101D0000BC01CD0129813A814B815C810E943D0259
:101D1000DC01CB01BC01CD0120E030E048EC52E415
:101D20000E943703DC01CB01BC01CD0120E030E093
:101D300040E85FE30E94DF01DC01CB01BC01CD0183
:101D40000E946700DC01CB01F8019183808308E4E5
:101D500010E0E6E4F0E0808191810196CC01A0E002
:101D6000B0E0BC01CD010E945505DC01CB01BC01F6
:101D7000CD0129813A814B815C810E943D02DC01C9
:101D8000CB01BC01CD0120E030E048EC52E40E94E0
:101D90003703DC01CB01BC01CD0120E030E040E89D
:101DA0005FE30E94DF01DC01CB01BC01CD010E9499
:101DB0006700DC01CB01F801918380830F900F90C5
:101DC0000F900F90CF91DF911F910F9108950F9376
:101DD0001F93DF93CF9300D000D0CDB7DEB76983D8
:101DE0007A838B839C8369817A818B819C8120E0BB
:101DF00030E048EC52E40E94730418160CF474C0EE
:101E000060E070E088EC92E429813A814B815C814A
:101E10000E94DF01DC01CB0189839A83AB83BC8301
:101E20000AE410E0E6E4F0E0808191810196CC01C3
:101E3000A0E0B0E0BC01CD010E945505DC01CB0162
:101E4000BC01CD0129813A814B815C810E943D0218
:101E5000DC01CB01BC01CD0120E030E048EC52E4D4
:101E60000E943703DC01CB01BC01CD010E94670059
:101E7000DC01CB01F8019183808308E410E0E6E403
:101E8000F0E0808191810196CC01A0E0B0E0BC013E
:101E9000CD010E945505DC01CB01BC01CD0129819A
:101EA0003A814B815C810E943D02DC01CB01BC0187
:101EB000CD0120E030E048EC52E40E943703DC0121
:101EC000CB01BC01CD0120E030E040E85FE30E949F
:101ED000DF01DC01CB01BC01CD010E946700DC0108
:101EE000CB01F801918380830F900F900F900F909A
:101EF000CF91DF911F910F910895DF93CF930F92B0
:101F0000CDB7DEB789838981882341F4AEE4B0E0A0
:101F1000EEE4F0E0808180648C930AC08981813096
:101F200039F4AEE4B0E0EEE4F0E080818F7B8C9396
:101F30000F90CF91DF910895DF93CF93CDB7DEB7A8
:101F4000A7E5B0E0E7E5F0E0808180628C93CF9177
:101F5000DF910895DF93CF93CDB7DEB7A7E5B0E06B
:101F6000E7E5F0E080818F7D8C93CF91DF9108953C
:101F7000DF93CF93CDB7DEB7A7E5B0E0E7E5F0E0BC
:101F8000808184608C93CF91DF910895DF93CF930C
:101F9000CDB7DEB7A7E5B0E0E7E5F0E080818B7F65
:101FA0008C93CF91DF910895DF93CF93CDB7DEB7B8
:101FB000A7E5B0E0E7E5F0E0808180618C93CF9108
:101FC000DF910895DF93CF93CDB7DEB7A7E5B0E0FB
:101FD000E7E5F0E080818F7E8C93CF91DF910895CB
:101FE000DF93CF93CDB7DEB7A7E5B0E0E7E5F0E04C
:101FF000808188608C93CF91DF910895DF93CF9398
:10200000CDB7DEB7A7E5B0E0E7E5F0E08081877FF8
:102010008C93CF91DF910895DF93CF9300D0CDB70C
:10202000DEB79A83898389819A819093A8028093ED
:10203000A7020F900F90CF91DF910895DF93CF9378
:1020400000D0CDB7DEB79A83898389819A81909336
:10205000AA028093A9020F900F90CF91DF9108956B
:10206000DF93CF9300D0CDB7DEB79A838983898180
:102070009A819093AC028093AB020F900F90CF9116
:10208000DF910895DF93CF9300D0CDB7DEB79A8369
:10209000898389819A819093AE028093AD020F90DB
:1020A0000F90CF91DF9108951F920F920FB60F926C
:1020B00000905B000F9211242F933F934F935F93F7
:1020C0006F937F938F939F93AF93BF93EF93FF9300
:1020D000DF93CF93CDB7DEB78091A7029091A8028E
:1020E000009729F0E091A702F091A8020995CF91FD
:1020F000DF91FF91EF91BF91AF919F918F917F9170
:102100006F915F914F913F912F910F9000925B00E3
:102110000F900FBE0F901F9018951F920F920FB641
:102120000F9200905B000F9211242F933F934F93D7
:102130005F936F937F938F939F93AF93BF93EF932F
:10214000FF93DF93CF93CDB7DEB78091A902909133
:10215000AA02009729F0E091A902F091AA0209953C
:10216000CF91DF91FF91EF91BF91AF919F918F91AF
:102170007F916F915F914F913F912F910F900092BE
:102180005B000F900FBE0F901F9018951F920F923B
:102190000FB60F9200905B000F9211242F933F9384
:1021A0004F935F936F937F938F939F93AF93BF935F
:1021B000EF93FF93DF93CF93CDB7DEB78091AB0260
:1021C0009091AC02009729F0E091AB02F091AC0243
:1021D0000995CF91DF91FF91EF91BF91AF919F91C1
:1021E0008F917F916F915F914F913F912F910F90C0
:1021F00000925B000F900FBE0F901F9018951F92DA
:102200000F920FB60F9200905B000F9211242F9344
:102210003F934F935F936F937F938F939F93AF936E
:10222000BF93EF93FF93DF93CF93CDB7DEB780914A
:10223000AD029091AE02009729F0E091AD02F091CD
:10224000AE020995CF91DF91FF91EF91BF91AF91D0
:102250009F918F917F916F915F914F913F912F91BE
:102260000F9000925B000F900FBE0F901F9018957B
:10227000DF93CF9300D000D0CDB7DEB789836A83D8
:102280008981282F30E03C832B838B819C81813096
:10229000910521F12B813C81223031052CF48B8179
:1022A0009C81009761F046C02B813C812230310532
:1022B00021F18B819C818330910571F13BC0A3E5B5
:1022C000B0E0E3E5F0E080818F7B8C93A3E5B0E0A4
:1022D000E3E5F0E08081877F8C932CC0A3E5B0E03C
:1022E000E3E5F0E0808180648C93A3E5B0E0E3E572
:1022F000F0E08081877F8C931DC0A3E5B0E0E3E52B
:10230000F0E080818F7B8C93A3E5B0E0E3E5F0E023
:10231000808188608C930EC0A3E5B0E0E3E5F0E037
:10232000808180648C93A3E5B0E0E3E5F0E08081F8
:1023300088608C93A3E5B0E0E3E5F0E08081887FDE
:102340008C938A8187708A83A3E5B0E0E3E5F0E0AF
:1023500090818A81892B8C930F900F900F900F9012
:10236000CF91DF910895DF93CF930F92CDB7DEB772
:102370008983E2E5F0E0898180830F90CF91DF913E
:102380000895DF93CF9300D00F92CDB7DEB7898346
:102390008981282F30E03B832A838A819B81813089
:1023A000910521F12A813B81223031052CF48A816B
:1023B0009B81009761F046C02A813B812230310524
:1023C00021F18A819B818330910571F13BC0A3E5A6
:1023D000B0E0E3E5F0E080818F7E8C93A3E5B0E090
:1023E000E3E5F0E080818F7D8C932CC0A3E5B0E025
:1023F000E3E5F0E0808180618C93A3E5B0E0E3E564
:10240000F0E080818F7D8C931DC0A3E5B0E0E3E513
:10241000F0E080818F7E8C93A3E5B0E0E3E5F0E00F
:10242000808180628C930EC0A3E5B0E0E3E5F0E02C
:10243000808180618C93A3E5B0E0E3E5F0E08081EA
:1024400080628C930F900F900F90CF91DF91089541
:10245000DF93CF93CDB7DEB7A7E5B0E0E7E5F0E0D7
:10246000808181608C93CF91DF910895DF93CF932A
:10247000CDB7DEB7A7E5B0E0E7E5F0E080818E7F7D
:102480008C93CF91DF910895DF93CF93CDB7DEB7D3
:10249000A7E5B0E0E7E5F0E0808182608C93CF9122
:1024A000DF910895DF93CF93CDB7DEB7A7E5B0E016
:1024B000E7E5F0E080818D7F8C93CF91DF910895E7
:1024C000DF93CF9300D0CDB7DEB79A83898389811C
:1024D0009A819093B0028093AF020F900F90CF91AA
:1024E000DF910895DF93CF9300D0CDB7DEB79A8305
:1024F000898389819A819093B2028093B1020F906F
:102500000F90CF91DF9108951F920F920FB60F9207
:1025100000905B000F9211242F933F934F935F9392
:102520006F937F938F939F93AF93BF93EF93FF939B
:10253000DF93CF93CDB7DEB7E2E5F0E086E08083AE
:102540008091AF029091B002009729F0E091AF0224
:10255000F091B0020995CF91DF91FF91EF91BF917A
:10256000AF919F918F917F916F915F914F913F912B
:102570002F910F9000925B000F900FBE0F901F9055
:1025800018951F920F920FB60F9200905B000F925A
:1025900011242F933F934F935F936F937F938F9368
:1025A0009F93AF93BF93EF93FF93DF93CF93CDB7F9
:1025B000DEB78091AF029091B002009729F0E091D0
:1025C000AF02F091B0020995CF91DF91FF91EF91A9
:1025D000BF91AF919F918F917F916F915F914F913B
:1025E0003F912F910F9000925B000F900FBE0F90C4
:1025F0001F901895DF93CF93CDB7DEB7EDE2F0E0F3
:10260000808180648083EDE2F0E080818F7D808333
:1026100088E061E00E942F14EDE2F0E080818061AB
:102620008083EDE2F0E08081877F8083EDE2F0E05F
:1026300080818B7F8083EDE2F0E080818160808308
:10264000EDE2F0E080818D7F8083EDE2F0E081813A
:102650008E7F8183CF91DF910895DF93CF93CDB7A4
:10266000DEB7EDE2F0E0808180648083EDE2F0E0AF
:1026700080818F7D8083EDE2F0E0808180618083C6
:10268000EDE2F0E08081877F8083EDE2F0E0808101
:102690008B7F8083EDE2F0E0808181608083EDE2DA
:1026A000F0E080818D7F8083EDE2F0E081818E7F9C
:1026B0008183CF91DF910895DF93CF9300D0CDB781
:1026C000DEB78A831982EDE2F0E08A818283EDE24F
:1026D000F0E0818180788823D1F3EDE2F0E082811F
:1026E000898389810F900F90CF91DF910895DF93B7
:1026F000CF93CDB7DEB7EDE2F0E0808180618083DB
:10270000EDE2F0E0808181608083EDE2F0E08081A5
:102710008D7F8083EDE2F0E081818E7F8183EDE229
:10272000F0E0808188608083EDE2F0E08081846069
:102730008083EDE2F0E0808180628083EDE2F0E072
:10274000808180648083CF91DF910895DF93CF9360
:1027500000D000D00F92CDB7DEB79A8389836B8308
:102760005D834C83EDE2F0E0808180688083898125
:102770009A819093B4028093B3028C819D8190934F
:10278000B6028093B502EDE2F0E08B8182830F9078
:102790000F900F900F900F90CF91DF910895DF93DE
:1027A000CF930F92CDB7DEB789838CE060E00E94B3
:1027B0002F14EDE2F0E0818180748823D1F7EDE2FF
:1027C000F0E089818283EDE2F0E0818180788823E6
:1027D000D1F38CE061E00E942F14EDE2F0E0828101
:1027E0000F90CF91DF9108951F920F920FB60F9225
:1027F00000905B000F9211242F933F934F935F93B0
:102800006F937F938F939F93AF93BF93EF93FF93B8
:10281000DF93CF93CDB7DEB7E091B302F091B4026E
:102820000995A091B502B091B602EDE2F0E0828187
:102830008C93CF91DF91FF91EF91BF91AF919F91D9
:102840008F917F916F915F914F913F912F910F9059
:1028500000925B000F900FBE0F901F901895DF93B2
:10286000CF9300D000D00F92CDB7DEB78A836B83B1
:102870008A8186958695869589838981282F30E07F
:102880003D832C838C819D818230910509F481C028
:102890002C813D81233031055CF48C819D81009732
:1028A000A1F02C813D812130310509F440C006C1E1
:1028B0008C819D818330910509F49DC02C813D81DF
:1028C0002430310509F4C9C0F9C08B818823B9F0DF
:1028D000ABE3B0E0EBE3F0E08081482F8A81882F02
:1028E00090E09C012770307081E090E0022E02C0E1
:1028F000880F991F0A94E2F7842B8C93DFC0ABE317
:10290000B0E0EBE3F0E08081482F8A81882F90E0EF
:102910009C012770307081E090E0022E02C0880F89
:10292000991F0A94E2F7809584238C93C7C08B810A
:102930008823B9F0A8E3B0E0E8E3F0E08081482F15
:102940008A81882F90E09C012770307081E090E0B0
:10295000022E02C0880F991F0A94E2F7842B8C93F1
:10296000ADC0A8E3B0E0E8E3F0E08081482F8A81C1
:10297000882F90E09C012770307081E090E0022E5B
:1029800002C0880F991F0A94E2F7809584238C93E4
:1029900095C08B818823B9F0A5E3B0E0E5E3F0E0D2
:1029A0008081482F8A81882F90E09C0127703070A9
:1029B00081E090E0022E02C0880F991F0A94E2F78E
:1029C000842B8C937BC0A5E3B0E0E5E3F0E080814D
:1029D000482F8A81882F90E09C012770307081E019
:1029E00090E0022E02C0880F991F0A94E2F78095AA
:1029F00084238C9363C08B818823B9F0A2E3B0E079
:102A0000E2E3F0E08081482F8A81882F90E09C01EA
:102A10002770307081E090E0022E02C0880F991F6D
:102A20000A94E2F7842B8C9349C0A2E3B0E0E2E37E
:102A3000F0E08081482F8A81882F90E09C012770E8
:102A4000307081E090E0022E02C0880F991F0A9436
:102A5000E2F7809584238C9331C08B818823B9F071
:102A6000A3E2B0E0E3E2F0E08081482F8A81882F82
:102A700090E09C012770307081E090E0022E02C04F
:102A8000880F991F0A94E2F7842B8C9317C0A3E256
:102A9000B0E0E3E2F0E08081482F8A81882F90E067
:102AA0009C012770307081E090E0022E02C0880FF8
:102AB000991F0A94E2F7809584238C930F900F90CE
:102AC0000F900F900F90CF91DF910895DF93CF93E8
:102AD00000D000D00F92CDB7DEB78B838B81869567
:102AE000869586958A838B81877089838A81282F32
:102AF00030E03D832C838C819D818230910509F4E7
:102B000044C02C813D812330310554F48C819D815A
:102B1000009799F02C813D812130310511F170C071
:102B20008C819D818330910509F443C02C813D81C6
:102B30002430310509F451C063C0ABE3B0E0EBE3EE
:102B4000F0E08081482F8981282F30E081E090E0FB
:102B5000022E02C0880F991F0A94E2F784278C93F3
:102B60004FC0A8E3B0E0E8E3F0E08081482F89811E
:102B7000282F30E081E090E0022E02C0880F991FDC
:102B80000A94E2F784278C933BC0A5E3B0E0E5E329
:102B9000F0E08081482F8981282F30E081E090E0AB
:102BA000022E02C0880F991F0A94E2F784278C93A3
:102BB00027C0A2E3B0E0E2E3F0E08081482F898102
:102BC000282F30E081E090E0022E02C0880F991F8C
:102BD0000A94E2F784278C9313C0A3E2B0E0E3E207
:102BE000F0E08081482F8981282F30E081E090E05B
:102BF000022E02C0880F991F0A94E2F784278C9353
:102C00000F900F900F900F900F90CF91DF9108953C
:102C1000DF93CF9300D000D000D0CDB7DEB78C8348
:102C20008C818695869586958B838C8187708A8327
:102C300019828B81282F30E03E832D834D815E8168
:102C40004230510509F441C08D819E818330910548
:102C50005CF42D813E812115310599F04D815E8115
:102C60004130510501F166C08D819E81833091050F
:102C700009F43DC02D813E812430310509F449C05D
:102C800059C0E9E3F0E08081282F30E08A81882F65
:102C900090E0A90102C0559547958A95E2F7CA01CF
:102CA0008170898347C0E6E3F0E08081282F30E01F
:102CB0008A81882F90E0A90102C0559547958A9591
:102CC000E2F7CA018170898335C0E3E3F0E08081D7
:102CD000282F30E08A81882F90E0A90102C0559505
:102CE00047958A95E2F7CA018170898323C0E0E3A2
:102CF000F0E08081282F30E08A81882F90E0A901C0
:102D000002C0559547958A95E2F7CA01817089837B
:102D100011C0E1E2F0E08081282F30E08A81882F25
:102D200090E0A90102C0559547958A95E2F7CA013E
:102D300081708983898126960FB6F894DEBF0FBE15
:102D4000CDBFCF91DF910895DF93CF93CDB7DEB79D
:102D50008091B7029091B802CF91DF910895DF93EF
:102D6000CF93CDB7DEB768970FB6F894DEBF0FBE2E
:102D7000CDBF8091B9029091BA02009709F0D3C0FB
:102D8000ECE4F0E0118210828FE161E00E942F14E8
:102D900080E090E0A0E2B1E48D8B9E8BAF8BB88F8A
:102DA0006D897E898F89988D2BEA3AEA4AEA50E448
:102DB0000E943D02DC01CB01898B9A8BAB8BBC8BD3
:102DC00069897A898B899C8920E030E040E85FE35B
:102DD0000E94430488231CF481E0888B91C0698998
:102DE0007A898B899C8920E030E04FE753E40E9488
:102DF000E30318160CF07BC06D897E898F89988D4E
:102E000020E030E04AE754E40E943703DC01CB01C4
:102E10008C879D87AE87BF876C857D858E859F85D6
:102E200020E030E04AE755E40E943D02DC01CB019E
:102E300088879987AA87BB87688579858A859B85D6
:102E400020E030E040E85FE30E94430488232CF454
:102E500081E090E09F838E833FC0688579858A8575
:102E60009B8520E03FEF4FE757E40E94E3031816ED
:102E70004CF56C857D858E859F8520E030E040E2B5
:102E800051E40E943D02DC01CB01BC01CD010E9456
:102E90006700DC01CB019F838E830FC080E991E046
:102EA0009D838C838C819D810197F1F79D838C8319
:102EB0008E819F8101979F838E838E819F81009752
:102EC00069F724C0688579858A859B850E9467009B
:102ED000DC01CB019F838E838E819F819B838A83BC
:102EE0008A819B810197F1F79B838A830FC069894F
:102EF0007A898B899C890E946700DC01CB01888BD1
:102F00008889898389818A95F1F789838FE160E0D7
:102F10000E942F140E949C0F8CE997E10E9442109E
:102F200080E00E947D0F68960FB6F894DEBF0FBE5A
:102F3000CDBFCF91DF910895DF93CF9300D0CDB770
:102F4000DEB71A8219828091B9029091BA02009775
:102F500091F4E6E4F0E0808191819093BC0280934B
:102F6000BB0281E00E947D0F81E090E09093BA0265
:102F70008093B90234C08091B9029091BA02813035
:102F8000910569F5E6E4F0E0808191819093BE02BD
:102F90008093BD020E94AA0F2091BD023091BE0213
:102FA0008091BB029091BC02A901481B590BCA0138
:102FB0009A83898389819A81880F991F880F991F25
:102FC0004D962AE330E0B9010E94AD1CCB019093ED
:102FD000B8028093B7021092BA021092B9020F9011
:102FE0000F90CF91DF910895DF93CF9300D0CDB7AD
:102FF000DEB78A8319828A810E94081689838981B3
:103000000F900F90CF91DF910895DF93CF9300D071
:10301000CDB7DEB78A83198281E00E94601983E010
:103020000E945C138A810E945C1380E00E945C1302
:10303000898380E00E94601989810F900F90CF9161
:10304000DF910895DF93CF9300D00F92CDB7DEB715
:103050009B838A83198213C08981282F30E08A815B
:103060009B81DC01A20FB31F8981882F90E0FC01B6
:10307000EE52FD4F80818C9389818F5F8983898196
:103080008E3050F30F900F900F90CF91DF910895F5
:10309000DF93CF9300D0CDB7DEB789836A8381E019
:1030A0000E94601982E00E945C1389810E945C1377
:1030B0008A810E945C1380E00E9460190F900F903B
:1030C000CF91DF910895DF93CF93CDB7DEB781E045
:1030D0000E94601980EC0E945C1380E00E946019DD
:1030E000CF91DF910895DF93CF9300D00F92CDB7AA
:1030F000DEB789836A834B8381E00E94601985E093
:103100000E945C1389810E945C138A810E945C1377
:103110008B810E945C1380E00E9460190F900F90D9
:103120000F90CF91DF910895DF93CF9300D00F924E
:10313000CDB7DEB789836A834B838AE269810E94B7
:10314000481889E26A810E94481888E26B810E94CF
:1031500048180F900F900F90CF91DF910895DF9353
:10316000CF930F92CDB7DEB789838981982F92953F
:10317000990F907E8FE060EE492F0E9473188EE0C9
:103180000E940518982F92959695977089819817A7
:10319000B1F70F90CF91DF910895DF93CF93CDB723
:1031A000DEB70E94FA120E9463188FE064E80E9462
:1031B00048188EE00E9405188295869587708430A5
:1031C000C1F780E861EB45E00E94941880E00E941E
:1031D000AF18CF91DF9108950F931F93DF93CF9393
:1031E000CDB7DEB729970FB6F894DEBF0FBECDBFBF
:1031F0008A834B835C836D837E832F831987088743
:1032000081E00E94601982E00E945C1380E30E94CA
:103210005C138F8182958695869583700E945C13DE
:103220008B819C81AD81BE81689412F8B695A7957B
:10323000979587951694D1F70E945C138B818295A0
:10324000880F807E0E945C1380E00E945C1380E007
:103250000E945C138F818F700E945C1319820EC0D4
:103260008981282F30E088859985FC01E20FF31FC2
:1032700080810E945C1389818F5F89838981282FD7
:1032800030E08F81882F90E08F7090702817390779
:103290003CF380E00E94601981E00E94601981E89F
:1032A0000E945C1380E00E94601929960FB6F89482
:1032B000DEBF0FBECDBFCF91DF911F910F9108955B
:1032C000DF93CF930F92CDB7DEB7898389818130A9
:1032D00029F488E060E00E942F1404C088E061E0D7
:1032E0000E942F140F90CF91DF910895DF93CF9319
:1032F00000D000D000D0CDB7DEB789834A835B838E
:103300006C837D832E8381E00E94601982E00E949D
:103310005C1389810E945C138E818823B9F18A81B4
:103320009B81AC81BD81689412F8B695A79597955D
:1033300087951694D1F70E945C138A81282F2295D5
:10334000220F207E8A819B81AC81BD81072E7BE18B
:10335000B695A795979587957A95D1F7702D822B7D
:1033600088600E945C138A819B81AC81BD81072E9D
:1033700073E1B695A795979587957A95D1F7702DB6
:103380000E945C1380E00E945C1314C08A819B81C0
:10339000AC81BD81689412F8B695A79597958795ED
:1033A0001694D1F70E945C138A818295880F807EE3
:1033B0000E945C1380E00E94601926960FB6F89474
:1033C000DEBF0FBECDBFCF91DF910895DF93CF93C6
:1033D000CDB7DEB70E94FA120E9463188FE064E84E
:1033E0000E9448188EE00E94051882958695877085
:1033F0008430C1F780E861EB45E00E94941880E2D8
:1034000040E050E060E070E021E00E94761984E244
:1034100040E050E060E070E021E00E9476198BE22D
:1034200061E00E94481880E00E94AF18CF91DF91C0
:1034300008950F931F93DF93CF930F92CDB7DEB70D
:1034400081E00E94601983E00E945C1380E60E9484
:103450005C1319820DC08981082F10E080E00E9462
:103460005C13F801EE52FD4F808389818F5F898361
:1034700089818E3080F380E00E9460198CE260E0E8
:103480000E9448180F90CF91DF911F910F910895DE
:10349000DF93CF93CDB7DEB78091C4028130C9F4FA
:1034A00087E10E94F417813021F484E08093800248
:1034B0000CC086E10E94F417813021F483E08093F0
:1034C000800203C089E08093800281E08093C20281
:1034D00020C08091C4028823E1F48091C50281302C
:1034E000C1F487E10E94F417813021F485E08093D4
:1034F00080020CC086E10E94F417813021F485E03F
:103500008093800203C086E08093800281E08093F4
:10351000C202CF91DF910895DF93CF9300D0CDB752
:10352000DEB70E94A4169A83898389819A818630A6
:10353000910560F089819A818E31910538F481E09E
:103540008093C00281E08093C30213C089819A8175
:103550008330910570F089819A818630910548F415
:1035600081E08093C00281E08093BF0281E080937C
:10357000C3020F900F90CF91DF910895DF93CF9307
:10358000CDB7DEB70E94AF16CF91DF910895DF93DC
:10359000CF93CDB7DEB70E94D21A0E94231BCF91E2
:1035A000DF9108950F931F93DF93CF9300D0CDB792
:1035B000DEB78091C0029091BF0289839A83809187
:1035C000C3028130B1F480E043E050E060E070E09D
:1035D00022E0FE0131968F010E94EC181092C30286
:1035E0001092BF021092C0021092C4021092C50243
:1035F00023C08091C202813071F4E0E8F2E080E003
:1036000042E050E060E070E021E08F010E94EC18A1
:103610001092C20211C08091C102813069F4E7ECBE
:10362000F2E080E041E050E060E070E021E08F01F6
:103630000E94EC181092C1020F900F90CF91DF9171
:103640001F910F910895DF93CF93CDB7DEB72F97DA
:103650000FB6F894DEBF0FBECDBF198281E00E9485
:103660000816882379F50E94191ACE0102960E9445
:1036700022188C8182958695877089838981813013
:1036800089F48885813039F481E08093C40289858A
:103690008093C60205C08885882311F41092C40265
:1036A000198210C08981823069F48885813021F4C3
:1036B00081E08093C50205C08885882311F41092AB
:1036C000C50219822F960FB6F894DEBF0FBECDBF8C
:1036D000CF91DF910895DF93CF93CDB7DEB780917F
:1036E000C402813009F0BDC00E94A4169093C902A3
:1036F0008093C8028091C602882F90E0A0E0B0E0DD
:10370000BC01CD010E945505DC01CB018093CA02AA
:103710009093CB02A093CC02B093CD022091C8022B
:103720003091C9028091810290918202A901481BC7
:10373000590BCA019093CF028093CE028091CE02A2
:103740009091CF02AA2797FDA095BA2FBC01CD0179
:103750000E94A304DC01CB012091830230918402FA
:103760004091850250918602BC01CD010E943D022C
:10377000DC01CB012091CA023091CB024091CC02F6
:103780005091CD02BC01CD010E941002DC01CB01A1
:103790008093CA029093CB02A093CC02B093CD0247
:1037A0008091C602882F90E0AA2797FDA095BA2F96
:1037B000BC01CD010E94A304DC01CB012091CA020F
:1037C0003091CB024091CC025091CD02BC01CD0191
:1037D0000E9443048823A4F48091C602882F90E0BD
:1037E000A0E0B0E0BC01CD010E945505DC01CB0199
:1037F0008093CA029093CB02A093CC02B093CD02E7
:103800008091CA029091CB02A091CC02B091CD02DE
:10381000BC01CD0120E030E040EA51E40E944304C5
:10382000882364F480E090E0A0EAB1E48093CA02C7
:103830009093CB02A093CC02B093CD028091CA02A8
:103840009091CB02A091CC02B091CD02BC01CD01F0
:103850000E946700DC01CB018093C70281E0809366
:10386000C102CF91DF910895DF93CF93CDB7DEB73B
:103870008091D0029091D10201969093D1028093D1
:10388000D0028091D0029091D1028431910530F024
:103890000E94BA0B1092D1021092D002CF91DF9108
:1038A0000895DF93CF93CDB7DEB780E063E00E9449
:1038B000381180E00E94C11186E00E94B311789413
:1038C0000E94281284E39CE10E94601280E063E081
:1038D0000E94BD0C0E94C3070E94CD180E94E619E9
:1038E000CF91DF910895DF93CF93CDB7DEB789E90C
:1038F0009CE060E570E041E020E00E94300B82EA4D
:103900009CE064E670E041E024E10E94300B80E935
:103910009CE068E270E041E020E00E94300B8BEA1E
:103920009CE068E770E041E028E20E94300B84EB05
:103930009CE064E170E041E020E00E94300BCF9118
:10394000DF910895DF93CF93CDB7DEB70E94511C6E
:103950000E94731C0E944B0CFDCFAA1BBB1B51E1A4
:1039600007C0AA1FBB1FA617B70710F0A61BB70BEF
:10397000881F991F5A95A9F780959095BC01CD0194
:103980000895A1E21A2EAA1BBB1BFD010DC0AA1FA0
:10399000BB1FEE1FFF1FA217B307E407F50720F0B8
:1039A000A21BB30BE40BF50B661F771F881F991F33
:1039B0001A9469F760957095809590959B01AC017C
:1039C000BD01CF0108952F923F924F925F926F9267
:1039D0007F928F929F92AF92BF92CF92DF92EF929F
:1039E000FF920F931F93CF93DF93CDB7DEB7CA1B20
:1039F000DB0B0FB6F894DEBF0FBECDBF09942A884B
:103A0000398848885F846E847D848C849B84AA84F2
:103A1000B984C884DF80EE80FD800C811B81AA817F
:103A2000B981CE0FD11D0FB6F894DEBF0FBECDBF4A
:083A3000ED010895F894FFCFA9
:103A3800000000000000000000010202030303036D
:103A48000404040404040404050505050505050526
:103A58000505050505050505060606060606060606
:103A680006060606060606060606060606060606EE
:103A780006060606060606060707070707070707D6
:103A880007070707070707070707070707070707BE
:103A980007070707070707070707070707070707AE
:103AA800070707070707070707070707070707079E
:103AB8000707070707070707080808080808080886
:103AC800080808080808080808080808080808086E
:103AD800080808080808080808080808080808085E
:103AE800080808080808080808080808080808084E
:103AF800080808080808080808080808080808083E
:103B0800080808080808080808080808080808082D
:103B1800080808080808080808080808080808081D
:103B2800080808080808080808080808080808080D
:103B38000808080808080808000000000101000239
:103B48000000030000040000050000060000070054
:103B5800010000010100010200010301010400014C
:103B68000500010600010700020000020100020230
:103B78000002030002040002050002060102070118
:103B8800030001030100030201030302030401030C
:103B980005020306010307000400000401000402F3
:103BA80000040300040400040500040600040700E0
:083BB8000264000000E03F0080
:00000001FF
