:100000000C9446000C9465000C9465000C946500FB
:100010000C9465000C9465000C9465000C946500CC
:100020000C9465000C9465000C9465000C946500BC
:100030000C9498080C945F080C9426080C946500A6
:100040000C9465000C94D0090C9426030C94650064
:100050000C945F030C9465000C9465000C9465008F
:100060000C9465000C9465000C9465000C9465007C
:100070000C9465000C9465000C9465000C9465006C
:100080000C9465000C9465000C94650011241FBE4F
:10009000CFEFD0E1DEBFCDBF12E0A0E0B1E0E4E4FD
:1000A000FCE200E00BBF02C007900D92AC37B10735
:1000B000D9F712E0ACE7B2E001C01D92AA3CB1074B
:1000C000E1F70E9401160C9420160C940000DF93B7
:1000D000CF93CDB7DEB727970FB6F894DEBF0FBE2C
:1000E000CDBF9B838A837D836C834E832F8319824C
:1000F0008A819B81009719F483E0898367C08C8192
:100100009D81893C910518F081E089835FC08091D1
:100110007C02843018F082E0898358C080917C0290
:10012000282F30E0C901880F991F820F931F880F75
:10013000991FFC01E358FD4F8A819B819183808345
:1001400080917C02282F30E04C81C901880F991FD3
:10015000820F931F880F991FFC01E058FD4F4083C9
:1001600080917C02282F30E0C901880F991F820FEF
:10017000931F0196880F991FFC01E358FD4F8E8154
:10018000808380917C02282F30E0C901880F991F5D
:10019000820F931F880F991FFC01EF57FD4F85E0D9
:1001A000808380917C02282F30E0C901880F991F3D
:1001B000820F931F880F991FFC01EE57FD4F8F810F
:1001C000808380917C028F5F80937C028981279657
:1001D0000FB6F894DEBF0FBECDBFCF91DF9108956B
:1001E000DF93CF930F92CDB7DEB7198280C089819C
:1001F000282F30E0C901880F991F820F931F0196A5
:10020000880F991FFC01E358FD4F8081882309F472
:100210006BC08981282F30E0C901880F991F820F98
:10022000931F880F991FFC01EF57FD4F4081898173
:10023000282F30E0C901880F991F820F931F880F64
:10024000991FFC01E058FD4F8081481778F18981A2
:10025000282F30E0C901880F991F820F931F019644
:10026000880F991FFC01E358FD4F82E0808389814C
:10027000482F50E08981282F30E0C901880F991F4D
:10028000820F931F880F991FFC01EE57FD4F80814D
:10029000282F2B5FCA01880F991F840F951F880F85
:1002A000991FFC01EF57FD4F20831EC08981482F05
:1002B00050E08981282F30E0C901880F991F820FF3
:1002C000931F880F991FFC01EF57FD4F8081282F46
:1002D0002B5FCA01880F991F840F951F880F991FE4
:1002E000FC01EF57FD4F208389818F5F89839091B7
:1002F0007C028981891708F47ACF0F90CF91DF9122
:100300000895DF93CF930F92CDB7DEB7198235C032
:100310008981282F30E0C901880F991F820F931F10
:100320000196880F991FFC01E358FD4F80818230B0
:1003300009F58981282F30E0C901880F991F820FA4
:10034000931F880F991FFC01E358FD4F0190F08126
:10035000E02D09958981282F30E0C901880F991F68
:10036000820F931F0196880F991FFC01E358FD4FE0
:1003700081E0808389818F5F898390917C0289816C
:10038000891730F20F90CF91DF910895DF93CF93CB
:10039000CDB7DEB70E943513CF91DF910895DF937B
:1003A000CF93CDB7DEB70E94D713CF91DF910895D9
:1003B000DF93CF93CDB7DEB70E948613CF91DF9145
:1003C0000895DF93CF93CDB7DEB70E94BE14CF91CF
:1003D000DF910895DF93CF93CDB7DEB7E9E2F0E088
:1003E00087E68083EAE2F0E088E18083E5E9F0E0F7
:1003F00086E08083CF91DF910895DF93CF930F92B2
:10040000CDB7DEB78983EBE2F0E0808182958695F7
:100410008770882F90E0817090700097A1F3ECE2D4
:10042000F0E0898180830F90CF91DF910895DF9371
:10043000CF93CDB7DEB7EBE2F0E080818823DCF725
:10044000ECE2F0E08081CF91DF910895DF93CF93CC
:1004500000D00F92CDB7DEB79B838A8319820EC07E
:100460008981282F30E08A819B81FC01E20FF31FF4
:1004700080810E94FD0189818F5F89838981282F76
:1004800030E08A819B81FC01E20FF31F8081882389
:1004900039F70F900F900F90CF91DF910895DF9370
:1004A000CF930F92CDB7DEB70E941C038983898159
:1004B0008053898389810F90CF91DF910895DF93D5
:1004C000CF93CDB7DEB70E94EA01CF91DF910895B7
:1004D000DF93CF930F92CDB7DEB7898389810E94D6
:1004E0000E030F90CF91DF910895DF93CF9300D04B
:1004F000CDB7DEB79A8389830E941702E981FA811A
:1005000080830F900F90CF91DF910895DF93CF9369
:1005100000D0CDB7DEB79A83898389819A810E9402
:1005200026020F900F90CF91DF910895DF93CF9324
:100530000F92CDB7DEB70E9417028053898389815D
:100540000F90CF91DF910895DF93CF930F92CDB7A6
:10055000DEB70E9417028053898389810F90CF9163
:10056000DF910895DF93CF93CDB7DEB7AAE2B0E075
:10057000EAE2F0E0808180688C93CF91DF9108956A
:10058000DF93CF93CDB7DEB7AAE2B0E0EAE2F0E0C6
:1005900080818F778C93CF91DF910895DF93CF93F4
:1005A000CDB7DEB7AAE2B0E0EAE2F0E08081806495
:1005B0008C93CF91DF910895DF93CF93CDB7DEB7C2
:1005C000AAE2B0E0EAE2F0E080818F7B8C93CF91E9
:1005D000DF910895DF93CF9300D0CDB7DEB79A8334
:1005E000898389819A8190939602809395020F90D6
:1005F0000F90CF91DF910895DF93CF9300D0CDB7C7
:10060000DEB79A83898389819A8190939802809337
:1006100097020F900F90CF91DF910895DF93CF93C2
:100620000F92CDB7DEB78983ECE2F0E08981808359
:100630000F90CF91DF910895DF93CF93CDB7DEB7C1
:10064000ECE2F0E08081CF91DF9108951F920F924C
:100650000FB60F9200905B000F9211242F933F93DF
:100660004F935F936F937F938F939F93AF93BF93BA
:10067000EF93FF93DF93CF93CDB7DEB780919502D1
:1006800090919602009729F0E0919502F0919602E0
:100690000995CF91DF91FF91EF91BF91AF919F911C
:1006A0008F917F916F915F914F913F912F910F901B
:1006B00000925B000F900FBE0F901F9018951F9235
:1006C0000F920FB60F9200905B000F9211242F93A0
:1006D0003F934F935F936F937F938F939F93AF93CA
:1006E000BF93EF93FF93DF93CF93CDB7DEB78091A6
:1006F000970290919802009729F0E0919702F0916B
:1007000098020995CF91DF91FF91EF91BF91AF9141
:100710009F918F917F916F915F914F913F912F9119
:100720000F9000925B000F900FBE0F901F901895D6
:10073000DF93CF93CDB7DEB7A3E5B0E0E3E5F0E01C
:10074000808180648C93A3E5B0E0E3E5F0E08081F4
:10075000877F8C93A3E5B0E0E3E5F0E080818F7EB6
:100760008C93A3E5B0E0E3E5F0E0808180628C93B8
:10077000CF91DF910895DF93CF930F92CDB7DEB77E
:100780008983E1E5F0E0898180830F90CF91DF914B
:100790000895DF93CF9300D0CDB7DEB79A838983D6
:1007A000E1E5F0E089EF808389819A8190939E0250
:1007B00080939D020F900F90CF91DF910895DF936A
:1007C000CF93CDB7DEB7A3E5B0E0E3E5F0E08081FD
:1007D00081608C93A3E5B0E0E3E5F0E08081826086
:1007E0008C93A3E5B0E0E3E5F0E080818B7F8C9310
:1007F000CF91DF910895DF93CF930F92CDB7DEB7FE
:10080000898389818536D0F4E1E5F0E08981482F3C
:1008100050E0CA019C01220F331FC9019695982F01
:10082000882797958795821B930B840F951F24E645
:1008300030E0B9010E940C16CB0180830F90CF915C
:10084000DF910895DF93CF93CDB7DEB7A3E5B0E096
:10085000E3E5F0E080818E7F8C93A3E5B0E0E3E5F3
:10086000F0E080818D7F8C93A3E5B0E0E3E5F0E0DC
:1008700080818B7F8C93CF91DF910895DF93CF930D
:1008800000D0CDB7DEB79A83898389819A8100979A
:1008900031F089819A8190939A02809399020F9006
:1008A0000F90CF91DF910895DF93CF9300D0CDB714
:1008B000DEB79A83898389819A81009731F0898193
:1008C0009A8190939C0280939B020F900F90CF91FE
:1008D000DF910895DF93CF9300D000D0CDB7DEB77E
:1008E00089836A838981282F30E03C832B838B8125
:1008F0009C818130910521F12B813C812230310591
:100900002CF48B819C81009761F046C02B813C8147
:100910002230310521F18B819C818330910571F169
:100920003BC0A5E4B0E0E5E4F0E080818F7B8C93F0
:10093000A5E4B0E0E5E4F0E08081877F8C932CC0F3
:10094000A5E4B0E0E5E4F0E0808180648C93A5E468
:10095000B0E0E5E4F0E08081877F8C931DC0A5E4E2
:10096000B0E0E5E4F0E080818F7B8C93A5E4B0E01B
:10097000E5E4F0E0808188608C930EC0A5E4B0E0EF
:10098000E5E4F0E0808180648C93A5E4B0E0E5E4E8
:10099000F0E0808188608C93A5E4B0E0E5E4F0E0CD
:1009A0008081887F8C938A8187708A83A5E4B0E0F8
:1009B000E5E4F0E090818A81892B8C930F900F9071
:1009C0000F900F90CF91DF910895DF93CF9300D0D8
:1009D0000F92CDB7DEB789838981282F30E03B8322
:1009E0002A838A819B818130910521F12A813B8173
:1009F000223031052CF48A819B81009761F046C03A
:100A00002A813B812230310521F18A819B8183300B
:100A1000910571F13BC0A5E4B0E0E5E4F0E0808130
:100A20008F7E8C93A5E4B0E0E5E4F0E080818F7DDB
:100A30008C932CC0A5E4B0E0E5E4F0E08081806117
:100A40008C93A5E4B0E0E5E4F0E080818F7D8C93A9
:100A50001DC0A5E4B0E0E5E4F0E080818F7E8C93DA
:100A6000A5E4B0E0E5E4F0E0808180628C930EC004
:100A7000A5E4B0E0E5E4F0E0808180618C93A5E43A
:100A8000B0E0E5E4F0E0808180628C930F900F90FD
:100A90000F90CF91DF910895DF93CF930F92CDB751
:100AA000DEB7898389818536D0F4E3E4F0E089817B
:100AB000482F50E0CA019C01220F331FC9019695AF
:100AC000982F882797958795821B930B840F951FE6
:100AD00024E630E0B9010E940C16CB0180830F9010
:100AE000CF91DF910895DF93CF9300D000D0CDB7A1
:100AF000DEB789836A838981282F30E03C832B838A
:100B00008B819C818230910509F440C02B813C810E
:100B1000233031055CF48B819C810097D1F02B81CF
:100B20003C812130310509F4A5C0C0C08B819C8176
:100B30008430910509F464C02B813C812430310557
:100B40000CF441C08B819C818530910509F475C0FE
:100B5000ADC0AFE4B0E0EFE4F0E080818E7F8C9335
:100B6000AFE4B0E0EFE4F0E080818D7F8C93AEE401
:100B7000B0E0EEE4F0E08081877F8C93AEE4B0E0FB
:100B8000EEE4F0E080818F7E8C9390C0AFE4B0E023
:100B9000EFE4F0E080818E7F8C93AFE4B0E0EFE48F
:100BA000F0E080818D7F8C93AEE4B0E0EEE4F0E085
:100BB000808188608C93AEE4B0E0EEE4F0E0808168
:100BC00080618C9373C0AFE4B0E0EFE4F0E080812B
:100BD0008E7F8C93AFE4B0E0EFE4F0E080818D7F16
:100BE0008C93AEE4B0E0EEE4F0E0808188608C931A
:100BF000AEE4B0E0EEE4F0E080818F7E8C9356C0EE
:100C0000AFE4B0E0EFE4F0E080818E7F8C93AFE45E
:100C1000B0E0EFE4F0E0808182608C93AEE4B0E07D
:100C2000EEE4F0E0808188608C93AEE4B0E0EEE426
:100C3000F0E0808180618C9339C0AFE4B0E0EFE4F4
:100C4000F0E0808181608C93AFE4B0E0EFE4F0E00D
:100C5000808182608C93AEE4B0E0EEE4F0E08081CD
:100C600088608C93AEE4B0E0EEE4F0E080818061D7
:100C70008C931CC0AFE4B0E0EFE4F0E080818160D1
:100C80008C93AFE4B0E0EFE4F0E080818D7F8C9353
:100C9000AEE4B0E0EEE4F0E08081877F8C93AEE4D8
:100CA000B0E0EEE4F0E080818F7E8C93AEE4B0E0C3
:100CB000EEE4F0E08081887F8C938A8187708A835C
:100CC000AEE4B0E0EEE4F0E090818A81892B8C9371
:100CD0000F900F900F900F90CF91DF910895DF93B9
:100CE000CF9300D00F92CDB7DEB789838981282FAB
:100CF00030E03B832A838A819B818130910521F1F9
:100D00002A813B81223031052CF48A819B81009716
:100D100061F04CC02A813B812230310551F18A813A
:100D20009B8183309105A1F141C0AFE4B0E0EFE4D5
:100D3000F0E080818F7B8C93AFE4B0E0EFE4F0E0F3
:100D400080818F778C9332C0AFE4B0E0EFE4F0E0C5
:100D5000808180648C93AFE4B0E0EFE4F0E08081C8
:100D60008F778C93EAE4F0E08AEF90E091838083C0
:100D70001DC0AFE4B0E0EFE4F0E080818F7B8C93A6
:100D8000AFE4B0E0EFE4F0E0808180688C930EC0C7
:100D9000AFE4B0E0EFE4F0E0808180648C93AFE4F6
:100DA000B0E0EFE4F0E0808180688C930F900F90CA
:100DB0000F90CF91DF910895DF93CF9300D00F92E2
:100DC000CDB7DEB789838981282F30E03B832A8322
:100DD0008A819B818130910521F12A813B812230DA
:100DE00031052CF48A819B81009761F046C02A81ED
:100DF0003B812230310521F18A819B81833091052D
:100E000071F13BC0AFE4B0E0EFE4F0E080818F7EB1
:100E10008C93AFE4B0E0EFE4F0E080818F7D8C93C1
:100E20002CC0AFE4B0E0EFE4F0E0808180618C930F
:100E3000AFE4B0E0EFE4F0E080818F7D8C931DC0E3
:100E4000AFE4B0E0EFE4F0E080818F7E8C93AFE41C
:100E5000B0E0EFE4F0E0808180628C930EC0AFE4FC
:100E6000B0E0EFE4F0E0808180618C93AFE4B0E02B
:100E7000EFE4F0E0808180628C930F900F900F90F0
:100E8000CF91DF910895DF93CF9300D00F92CDB72C
:100E9000DEB789838981282F30E03B832A838A81CA
:100EA0009B81009731F02A813B812130310549F047
:100EB0000FC0AEE4B0E0EEE4F0E0808180648C939B
:100EC00007C0AEE4B0E0EEE4F0E080818F7B8C936D
:100ED0000F900F900F90CF91DF910895DF93CF93F4
:100EE000CDB7DEB7A7E5B0E0E7E5F0E0808184604C
:100EF0008C93CF91DF910895DF93CF93CDB7DEB779
:100F0000A7E5B0E0E7E5F0E080818B7F8C93CF919F
:100F1000DF910895DF93CF93CDB7DEB7A7E5B0E0BB
:100F2000E7E5F0E0808180618C93CF91DF910895B7
:100F3000DF93CF93CDB7DEB7A7E5B0E0E7E5F0E00C
:100F400080818F7E8C93CF91DF910895DF93CF9333
:100F5000CDB7DEB7A7E5B0E0E7E5F0E080818860D7
:100F60008C93CF91DF910895DF93CF93CDB7DEB708
:100F7000A7E5B0E0E7E5F0E08081877F8C93CF9133
:100F8000DF910895DF93CF93CDB7DEB7A7E5B0E04B
:100F9000E7E5F0E0808180628C93CF91DF91089546
:100FA000DF93CF93CDB7DEB7A7E5B0E0E7E5F0E09C
:100FB00080818F7D8C93CF91DF910895DF93CF93C4
:100FC00000D0CDB7DEB79A83898380919F0290913C
:100FD000A0029A8389830F900F90CF91DF9108959B
:100FE000DF93CF9300D0CDB7DEB79A838983898111
:100FF0009A819093A2028093A1020F900F90CF91BB
:10100000DF910895DF93CF9300D0CDB7DEB79A83F9
:1010100089838091A3029091A4029A8389830F907F
:101020000F90CF91DF910895DF93CF9300D0CDB78C
:10103000DEB79A8389838091A5029091A6029A8354
:1010400089830F900F90CF91DF9108951F920F9297
:101050000FB60F9200905B000F9211242F933F93D5
:101060004F935F936F937F938F939F93AF93BF93B0
:10107000EF93FF93DF93CF93CDB7DEB780919F02BD
:101080009091A002009729F0E0919F02F091A002B8
:101090000995CF91DF91FF91EF91BF91AF919F9112
:1010A0008F917F916F915F914F913F912F910F9011
:1010B00000925B000F900FBE0F901F9018951F922B
:1010C0000F920FB60F9200905B000F9211242F9396
:1010D0003F934F935F936F937F938F939F93AF93C0
:1010E000BF93EF93FF93DF93CF93CDB7DEB780919C
:1010F000A3029091A402009729F0E091A302F0913D
:10110000A4020995CF91DF91FF91EF91BF91AF912B
:101110009F918F917F916F915F914F913F912F910F
:101120000F9000925B000F900FBE0F901F901895CC
:101130001F920F920FB60F9200905B000F92112436
:101140002F933F934F935F936F937F938F939F93CF
:10115000AF93BF93EF93FF93DF93CF93CDB7DEB7FA
:101160008091A1029091A202009729F0E091A10242
:10117000F091A2020995CF91DF91FF91EF91BF917C
:10118000AF919F918F917F916F915F914F913F911F
:101190002F910F9000925B000F900FBE0F901F9049
:1011A0001895DF93CF930F92CDB7DEB78983ECE428
:1011B000F0E08981882F90E0918380830F90CF9118
:1011C000DF910895DF93CF93CDB7DEB7EDE2F0E086
:1011D000808180648083EDE2F0E080818F7D808378
:1011E000EDE2F0E0808180618083EDE2F0E08081DB
:1011F000877F8083EDE2F0E080818B7F8083EDE26A
:10120000F0E0808181608083EDE2F0E080818D7F7D
:101210008083EDE2F0E081818E7F8183CF91DF9149
:101220000895DF93CF93CDB7DEB7EDE2F0E0808194
:1012300080648083EDE2F0E080818F7D8083EDE249
:10124000F0E0808180618083EDE2F0E08081877F43
:101250008083EDE2F0E080818B7F8083EDE2F0E03F
:10126000808181608083EDE2F0E080818D7F8083EA
:10127000EDE2F0E081818E7F8183CF91DF9108954F
:10128000DF93CF9300D0CDB7DEB78A831982EDE22A
:10129000F0E08A818283EDE2F0E08181807888232A
:1012A000D1F3EDE2F0E08281898389810F900F9084
:1012B000CF91DF910895DF93CF93CDB7DEB7EDE205
:1012C000F0E0808180618083EDE2F0E080818160E8
:1012D0008083EDE2F0E080818D7F8083EDE2F0E0BD
:1012E00081818E7F8183EDE2F0E080818860808360
:1012F000EDE2F0E0808184608083EDE2F0E08081C7
:1013000080628083EDE2F0E0808180648083CF9111
:10131000DF910895DF93CF9300D000D00F92CDB727
:10132000DEB79A8389836B835D834C83EDE2F0E0C3
:1013300080818068808389819A819093A8028093BC
:10134000A7028C819D819093AA028093A902EDE26D
:10135000F0E08B8182830F900F900F900F900F9091
:10136000CF91DF910895DF93CF930F92CDB7DEB782
:101370008983EDE2F0E0818180748823D1F7EDE28A
:10138000F0E089818283EDE2F0E08181807888233A
:10139000D1F3EDE2F0E082810F90CF91DF910895DB
:1013A0001F920F920FB60F9200905B000F921124C4
:1013B0002F933F934F935F936F937F938F939F935D
:1013C000AF93BF93EF93FF93DF93CF93CDB7DEB788
:1013D000E091A702F091A8020995A091A902B0910D
:1013E000AA02EDE2F0E082818C93CF91DF91FF9130
:1013F000EF91BF91AF919F918F917F916F915F918D
:101400004F913F912F910F9000925B000F900FBE74
:101410000F901F901895DF93CF9300D00F92CDB708
:10142000DEB71982198277C38981282F30E0C9017C
:10143000880F991F820F931FFC01EC5FFD4F808185
:10144000282F30E03B832A838A819B81823091055B
:1014500009F46BC12A813B81233031055CF48A8118
:101460009B810097A1F02A813B812130310509F44D
:10147000B5C04EC38A819B818330910509F4FCC1BC
:101480002A813B812430310509F49DC241C3898101
:10149000282F30E0C901880F991F820F931FFC018C
:1014A000EA5FFD4F80818823F9F4AAE3B0E0EAE324
:1014B000F0E08081482F8981282F30E0C901880F12
:1014C000991F820F931FFC01EB5FFD4F8081282F36
:1014D00030E081E090E0022E02C0880F991F0A944C
:1014E000E2F7842B8C9314C38981282F30E0C90143
:1014F000880F991F820F931FFC01EA5FFD4F8081C7
:10150000813001F5AAE3B0E0EAE3F0E08081482F02
:101510008981282F30E0C901880F991F820F931FFE
:10152000FC01EB5FFD4F8081282F30E081E090E0EF
:10153000022E02C0880F991F0A94E2F78095842337
:101540008C93E6C28981282F30E0C901880F991F4A
:10155000820F931FFC01EA5FFD4F8081823009F00A
:10156000D7C2AAE3B0E0EAE3F0E08081482F8981A6
:10157000282F30E0C901880F991F820F931FFC01AB
:10158000EB5FFD4F8081282F30E081E090E002C0CA
:10159000880F991F2A95E2F7809584238C93ABE3FB
:1015A000B0E0EBE3F0E08081482F8981282F30E024
:1015B000C901880F991F820F931FFC01EB5FFD4F3C
:1015C0008081282F30E081E090E0022E02C0880F59
:1015D000991F0A94E2F7842B8C939AC28981282F51
:1015E00030E0C901880F991F820F931FFC01EA5F49
:1015F000FD4F80818823F9F4A7E3B0E0E7E3F0E052
:101600008081482F8981282F30E0C901880F991FD8
:10161000820F931FFC01EB5FFD4F8081282F30E08C
:1016200081E090E0022E02C0880F991F0A94E2F731
:10163000842B8C936DC28981282F30E0C901880FDB
:10164000991F820F931FFC01EA5FFD4F808181305B
:1016500001F5A7E3B0E0E7E3F0E08081482F89815E
:10166000282F30E0C901880F991F820F931FFC01BA
:10167000EB5FFD4F8081282F30E081E090E0022E6B
:1016800002C0880F991F0A94E2F7809584238C93F7
:101690003FC28981282F30E0C901880F991F820F2E
:1016A000931FFC01EA5FFD4F8081823009F030C258
:1016B000A7E3B0E0E7E3F0E08081482F8981282F9D
:1016C00030E0C901880F991F820F931FFC01EB5F67
:1016D000FD4F8081282F30E081E090E002C0880F2C
:1016E000991F2A95E2F7809584238C93A8E3B0E0B4
:1016F000E8E3F0E08081482F8981282F30E0C9019C
:10170000880F991F820F931FFC01EB5FFD4F8081B3
:10171000282F30E081E090E0022E02C0880F991F50
:101720000A94E2F7842B8C93F3C18981282F30E04F
:10173000C901880F991F820F931FFC01EA5FFD4FBB
:1017400080818823F9F4A4E3B0E0E4E3F0E0808151
:10175000482F8981282F30E0C901880F991F820FF7
:10176000931FFC01EB5FFD4F8081282F30E081E06B
:1017700090E0022E02C0880F991F0A94E2F7842B92
:101780008C93C6C18981282F30E0C901880F991F29
:10179000820F931FFC01EA5FFD4F8081813001F5CC
:1017A000A4E3B0E0E4E3F0E08081482F8981282FB2
:1017B00030E0C901880F991F820F931FFC01EB5F76
:1017C000FD4F8081282F30E081E090E0022E02C0A2
:1017D000880F991F0A94E2F7809584238C9398C10F
:1017E0008981282F30E0C901880F991F820F931F2C
:1017F000FC01EA5FFD4F8081823009F089C1A4E3DA
:10180000B0E0E4E3F0E08081482F8981282F30E0C8
:10181000C901880F991F820F931FFC01EB5FFD4FD9
:101820008081282F30E081E090E002C0880F991F6E
:101830002A95E2F7809584238C93A5E3B0E0E5E355
:10184000F0E08081482F8981282F30E0C901880F7E
:10185000991F820F931FFC01EB5FFD4F8081282FA2
:1018600030E081E090E0022E02C0880F991F0A94B8
:10187000E2F7842B8C934CC18981282F30E0C90179
:10188000880F991F820F931FFC01EA5FFD4F808133
:101890008823F9F4A1E3B0E0E1E3F0E08081482F90
:1018A0008981282F30E0C901880F991F820F931F6B
:1018B000FC01EB5FFD4F8081282F30E081E090E05C
:1018C000022E02C0880F991F0A94E2F7842B8C9392
:1018D0001FC18981282F30E0C901880F991F820F0D
:1018E000931FFC01EA5FFD4F8081813001F5A1E388
:1018F000B0E0E1E3F0E08081482F8981282F30E0DB
:10190000C901880F991F820F931FFC01EB5FFD4FE8
:101910008081282F30E081E090E0022E02C0880F05
:10192000991F0A94E2F7809584238C93F1C08981F2
:10193000282F30E0C901880F991F820F931FFC01E7
:10194000EA5FFD4F8081823009F0E2C0A1E3B0E0A0
:10195000E1E3F0E08081482F8981282F30E0C90140
:10196000880F991F820F931FFC01EB5FFD4F808151
:10197000282F30E081E090E002C0880F991F2A955F
:10198000E2F7809584238C93A2E3B0E0E2E3F0E0F9
:101990008081482F8981282F30E0C901880F991F45
:1019A000820F931FFC01EB5FFD4F8081282F30E0F9
:1019B00081E090E0022E02C0880F991F0A94E2F79E
:1019C000842B8C93A5C08981282F30E0C901880F12
:1019D000991F820F931FFC01EA5FFD4F80818823CE
:1019E000F9F4A2E2B0E0E2E2F0E08081482F8981E0
:1019F000282F30E0C901880F991F820F931FFC0127
:101A0000EB5FFD4F8081282F30E081E090E0022ED7
:101A100002C0880F991F0A94E2F7842B8C9378C038
:101A20008981282F30E0C901880F991F820F931FE9
:101A3000FC01EA5FFD4F8081813001F5A2E2B0E058
:101A4000E2E2F0E08081482F8981282F30E0C9014F
:101A5000880F991F820F931FFC01EB5FFD4F808160
:101A6000282F30E081E090E0022E02C0880F991FFD
:101A70000A94E2F7809584238C934AC08981282FA9
:101A800030E0C901880F991F820F931FFC01EA5FA4
:101A9000FD4F80818230E1F5A2E2B0E0E2E2F0E0C9
:101AA0008081482F8981282F30E0C901880F991F34
:101AB000820F931FFC01EB5FFD4F8081282F30E0E8
:101AC00081E090E002C0880F991F2A95E2F7809587
:101AD00084238C93A3E2B0E0E3E2F0E08081482F1E
:101AE0008981282F30E0C901880F991F820F931F29
:101AF000FC01EB5FFD4F8081282F30E081E090E01A
:101B0000022E02C0880F991F0A94E2F7842B8C934F
:101B100089818F5F89838981803408F485CC0F9017
:101B20000F900F90CF91DF910895DF93CF93CDB7B2
:101B3000DEB7AFE5B0E0EFE5F0E0808180688C9340
:101B4000CF91DF910895DF93CF93CDB7DEB7AFE5A7
:101B5000B0E0EFE5F0E080818F778C93CF91DF915B
:101B60000895DF93CF9300D000D00F92CDB7DEB7AA
:101B70008A836B838A8186958695869589838981F8
:101B8000282F30E03D832C838C819D81823091050C
:101B900009F481C02C813D81233031055CF48C81B6
:101BA0009D810097A1F02C813D812130310509F400
:101BB00040C006C18C819D818330910509F49DC090
:101BC0002C813D812430310509F4C9C0F9C08B81D5
:101BD0008823B9F0ABE3B0E0EBE3F0E08081482F7D
:101BE0008A81882F90E09C012770307081E090E01E
:101BF000022E02C0880F991F0A94E2F7842B8C935F
:101C0000DFC0ABE3B0E0EBE3F0E08081482F8A81F6
:101C1000882F90E09C012770307081E090E0022EC8
:101C200002C0880F991F0A94E2F7809584238C9351
:101C3000C7C08B818823B9F0A8E3B0E0E8E3F0E007
:101C40008081482F8A81882F90E09C012770307016
:101C500081E090E0022E02C0880F991F0A94E2F7FB
:101C6000842B8C93ADC0A8E3B0E0E8E3F0E0808182
:101C7000482F8A81882F90E09C012770307081E086
:101C800090E0022E02C0880F991F0A94E2F7809517
:101C900084238C9395C08B818823B9F0A5E3B0E0B1
:101CA000E5E3F0E08081482F8A81882F90E09C0155
:101CB0002770307081E090E0022E02C0880F991FDB
:101CC0000A94E2F7842B8C937BC0A5E3B0E0E5E3B4
:101CD000F0E08081482F8A81882F90E09C01277056
:101CE000307081E090E0022E02C0880F991F0A94A4
:101CF000E2F7809584238C9363C08B818823B9F0AD
:101D0000A2E3B0E0E2E3F0E08081482F8A81882FEF
:101D100090E09C012770307081E090E0022E02C0BC
:101D2000880F991F0A94E2F7842B8C9349C0A2E391
:101D3000B0E0E2E3F0E08081482F8A81882F90E0D4
:101D40009C012770307081E090E0022E02C0880F65
:101D5000991F0A94E2F7809584238C9331C08B817C
:101D60008823B9F0A3E2B0E0E3E2F0E08081482FFD
:101D70008A81882F90E09C012770307081E090E08C
:101D8000022E02C0880F991F0A94E2F7842B8C93CD
:101D900017C0A3E2B0E0E3E2F0E08081482F8A813F
:101DA000882F90E09C012770307081E090E0022E37
:101DB00002C0880F991F0A94E2F7809584238C93C0
:101DC0000F900F900F900F900F90CF91DF9108958B
:101DD000DF93CF9300D000D00F92CDB7DEB78B83C7
:101DE0008B818695869586958A838B81877089837A
:101DF0008A81282F30E03D832C838C819D81823025
:101E0000910509F444C02C813D812330310554F4FF
:101E10008C819D81009799F02C813D812130310585
:101E200011F170C08C819D818330910509F443C00C
:101E30002C813D812430310509F451C063C0ABE3EE
:101E4000B0E0EBE3F0E08081482F8981282F30E07B
:101E500081E090E0022E02C0880F991F0A94E2F7F9
:101E600084278C934FC0A8E3B0E0E8E3F0E08081E2
:101E7000482F8981282F30E081E090E0022E02C0B7
:101E8000880F991F0A94E2F784278C933BC0A5E33F
:101E9000B0E0E5E3F0E08081482F8981282F30E031
:101EA00081E090E0022E02C0880F991F0A94E2F7A9
:101EB00084278C9327C0A2E3B0E0E2E3F0E08081C6
:101EC000482F8981282F30E081E090E0022E02C067
:101ED000880F991F0A94E2F784278C9313C0A3E21A
:101EE000B0E0E3E2F0E08081482F8981282F30E0E4
:101EF00081E090E0022E02C0880F991F0A94E2F759
:101F000084278C930F900F900F900F900F90CF918C
:101F1000DF910895DF93CF9300D000D000D0CDB7EC
:101F2000DEB78C838C818695869586958B838C8194
:101F300087708A8319828B81282F30E03E832D831E
:101F40004D815E814230510509F441C08D819E81F1
:101F5000833091055CF42D813E812115310599F086
:101F60004D815E814130510501F166C08D819E81B8
:101F70008330910509F43DC02D813E812430310527
:101F800009F449C059C0E9E3F0E08081282F30E02E
:101F90008A81882F90E0A90102C0559547958A95BE
:101FA000E2F7CA018170898347C0E6E3F0E08081EF
:101FB000282F30E08A81882F90E0A90102C0559532
:101FC00047958A95E2F7CA018170898335C0E3E3BA
:101FD000F0E08081282F30E08A81882F90E0A901ED
:101FE00002C0559547958A95E2F7CA0181708983A9
:101FF00023C0E0E3F0E08081282F30E08A81882F41
:1020000090E0A90102C0559547958A95E2F7CA016B
:102010008170898311C0E1E2F0E08081282F30E0F7
:102020008A81882F90E0A90102C0559547958A952D
:10203000E2F7CA0181708983898126960FB6F894E8
:10204000DEBF0FBECDBFCF91DF910895DF93CF9359
:10205000CDB7DEB786E40E94FB0384E161E00E9415
:10206000B10D85E160E00E94B10DCF91DF9108953F
:10207000DF93CF93CDB7DEB786E40E94FB0384E104
:1020800060E00E94B10D85E161E00E94B10DCF9149
:10209000DF910895DF93CF93CDB7DEB780E00E9444
:1020A000FB0384E160E00E94B10D85E160E00E94E5
:1020B000B10DCF91DF910895DF93CF930F92CDB7FC
:1020C000DEB7898389810E94FB0384E161E00E947D
:1020D000B10D85E160E00E94B10D0F90CF91DF91CD
:1020E0000895DF93CF9300D00F92CDB7DEB78983E9
:1020F0008981282F30E03B832A838A819B81843029
:102100009105B1F02A813B8129303105E9F08A81BE
:102110009B818330910519F582E161E00E94B10D48
:1021200083E160E00E94B10D83E60E944C0517C078
:1021300082E160E00E94B10D83E161E00E94B10D97
:1021400083E60E944C050BC082E160E00E94B10D65
:1021500083E160E00E94B10D80E00E944C050F9089
:102160000F900F90CF91DF910895DF93CF9300D020
:10217000CDB7DEB78A83198281E00E94131283E013
:102180000E9440098A810E94400980E00E94400923
:10219000898380E00E94131289810F900F90CF9164
:1021A000DF910895DF93CF9300D00F92CDB7DEB7C4
:1021B0009B838A83198213C08981282F30E08A810A
:1021C0009B81DC01A20FB31F8981882F90E0FC0165
:1021D000EE54FD4F80818C9389818F5F8983898143
:1021E0008E3050F30F900F900F90CF91DF910895A4
:1021F000DF93CF9300D0CDB7DEB789836A8381E0C8
:102200000E94131282E00E94400989810E944009C5
:102210008A810E94400980E00E9413120F900F9063
:10222000CF91DF910895DF93CF93CDB7DEB781E0F3
:102230000E94131280EC0E94400980E00E94131259
:10224000CF91DF910895DF93CF9300D00F92CDB758
:10225000DEB789836A834B8381E00E94131285E095
:102260000E94400989810E9440098A810E94400998
:102270008B810E94400980E00E9413120F900F9002
:102280000F90CF91DF910895DF93CF9300D00F92FD
:10229000CDB7DEB789836A834B838AE269810E9466
:1022A000F81089E26A810E94F81088E26B810E942E
:1022B000F8100F900F900F90CF91DF910895DF935A
:1022C000CF930F92CDB7DEB789838981982F9295EE
:1022D000990F907E8FE060EE492F0E9423118EE0CF
:1022E0000E94B510982F92959695977089819817AE
:1022F000B1F70F90CF91DF910895DF93CF93CDB7D2
:10230000DEB780E00E9413120E94E2080E941311BF
:102310008FE064E80E94F8108EE00E94B51082956C
:10232000869587708430C1F780E861EB45E00E94B4
:10233000441180E00E945F11CF91DF9108950F93C7
:102340001F93DF93CF93CDB7DEB729970FB6F894DD
:10235000DEBF0FBECDBF8A834B835C836D837E83DC
:102360002F831987088781E00E94131282E00E9460
:10237000400980E30E9440098F8182958695869569
:1023800083700E9440098B819C81AD81BE816894DD
:1023900012F8B695A795979587951694D1F70E9450
:1023A00040098B818295880F807E0E94400980E0E1
:1023B0000E94400980E00E9440098F818F700E9436
:1023C000400919820EC08981282F30E088859985BF
:1023D000FC01E20FF31F80810E94400989818F5F19
:1023E00089838981282F30E08F81882F90E08F703A
:1023F0009070281739073CF380E00E94131281E0A7
:102400000E94131281E80E94400980E00E9413128A
:1024100029960FB6F894DEBF0FBECDBFCF91DF91E6
:102420001F910F910895DF93CF930F92CDB7DEB731
:1024300089838981813029F488E060E00E94B10DB0
:1024400004C088E061E00E94B10D0F90CF91DF9150
:102450000895DF93CF9300D000D000D0CDB7DEB782
:1024600089834A835B836C837D832E8381E00E9412
:10247000131282E00E94400989810E9440098E81E6
:102480008823B9F18A819B81AC81BD81689412F85F
:10249000B695A795979587951694D1F70E94400910
:1024A0008A81282F2295220F207E8A819B81AC81F0
:1024B000BD81072E7BE1B695A795979587957A956F
:1024C000D1F7702D822B88600E9440098A819B8100
:1024D000AC81BD81072E73E1B695A7959795879539
:1024E0007A95D1F7702D0E94400980E00E94400942
:1024F00014C08A819B81AC81BD81689412F8B69525
:10250000A795979587951694D1F70E9440098A81DF
:102510008295880F807E0E94400980E00E941312FD
:1025200026960FB6F894DEBF0FBECDBFCF91DF91D8
:102530000895DF93CF93CDB7DEB780E00E941312EA
:102540000E94E2080E9413118FE064E80E94F810D4
:102550008EE00E94B5108295869587708430C1F711
:1025600080E861EB45E00E94441180E240E050E0E9
:1025700060E070E021E00E94291284E240E050E037
:1025800060E070E021E00E9429128BE261E00E948D
:10259000F81080E00E945F11CF91DF9108950F93B2
:1025A0001F93DF93CF930F92CDB7DEB781E00E94E8
:1025B000131283E00E94400980E60E9440091982BC
:1025C0000DC08981082F10E080E00E944009F801C9
:1025D000EE54FD4F808389818F5F898389818E309E
:1025E00080F380E00E9413128CE260E00E94F810F9
:1025F0000F90CF91DF911F910F910895DF93CF93AB
:10260000CDB7DEB70E944F028093C30281E0809372
:10261000C902CF91DF910895DF93CF93CDB7DEB795
:102620000E940B0A80E10E948A0F8823D9F30E943E
:1026300098030E94DF0381E063E00E946A0482E065
:102640000E94E5040E94EA010E947D110E949912F5
:102650008EEF92E10E94EA020E94B20280E091E0D5
:102660000E942602CF91DF910895DF93CF93CDB7DB
:10267000DEB78091C902813009F045C08091C30264
:10268000853018F481E08093C1028091C3028530C7
:1026900031F481E08093C80281E08093C60280918A
:1026A000C302863071F48FE391E00E9426021092FB
:1026B000C8021092C60281E08093C10281E080933B
:1026C000C4028091C302873061F487E691E00E94E2
:1026D000260281E08093C6021092C10281E08093BD
:1026E000C7028091C302883061F489E791E00E94BB
:1026F00026021092C60281E08093C10281E080939D
:10270000C7021092C902CF91DF910895DF93CF9352
:1027100000D0CDB7DEB78091C102813049F58091FC
:10272000C802882329F58091C3028093C202809158
:10273000C202282F30E03A83298389819A8184302C
:10274000910559F029813A812930310571F089814B
:102750009A818330910529F00BC084E00E947110AA
:1027600007C083E00E94711003C089E00E947110CD
:102770008091C6028130B1F48091AF02853029F496
:1027800084E061E00E94B10D0DC08091AF028630FF
:1027900029F484E060E00E94B10D04C08091AF0292
:1027A0000E9471100F900F90CF91DF910895DF93E9
:1027B000CF9300D000D0CDB7DEB78091C102813079
:1027C00021F58091C802882301F58091C30280938E
:1027D000C2028091C202282F30E03C832B838B8180
:1027E0009C818130910561F02B813C812230310543
:1027F00051F08B819C81009741F40E944A1005C0E2
:102800000E94261002C00E9438108091C8028130B8
:1028100009F09DC081E08093AB028091C302809358
:10282000AC028091C002882309F07AC08091AC028A
:10283000282F30E03A83298389819A81823091055B
:10284000E9F129813A812330310554F489819A8153
:10285000009791F029813A8121303105F1F060C073
:1028600089819A8183309105D1F129813A8124307F
:10287000310509F445C054C08EE18093AE028EE16B
:102880008093AD028091AE020E945C1081E0809343
:10289000C00281E08093C40243C088E28093AE020C
:1028A00088E28093AD028091AE020E945C1081E0CC
:1028B0008093C00281E08093C40232C08CE3809395
:1028C000AE028CE38093AD028091AE020E945C1058
:1028D00081E08093C00281E08093C40221C080E542
:1028E0008093AE0280E58093AD028091AE020E949B
:1028F0005C1081E08093C00281E08093C40210C02C
:102900008AE58093AE028AE58093AD028091AE02A3
:102910000E945C1081E08093C00281E08093C40239
:102920008091C502882359F48CE891E00E94260228
:1029300084EB91E00E94260281E08093C5028091A1
:10294000C002813021F48091AE020E945C1080911F
:10295000C802882361F48091AB02813041F48091F8
:10296000AD020E945C101092C0021092AB020F9058
:102970000F900F900F90CF91DF910895DF93CF9339
:10298000CDB7DEB70E94C9140E944C15CF91DF91DC
:1029900008950F931F93DF93CF93CDB7DEB727979B
:1029A0000FB6F894DEBF0FBECDBF8091C8029091E4
:1029B000AE0289839A838091C6028B838091C40280
:1029C000882371F186EC91E00E9426028091C80272
:1029D000282F30E03F832E838E819F81009731F036
:1029E0002E813F812130310569F017C080E041E040
:1029F00050E060E070E021E0FE0131968F010E941E
:102A00009F110BC080E041E050E060E070E022E008
:102A1000FE0131968F010E949F111092C40231C0B5
:102A20008091C702882369F18091C602282F30E087
:102A30003D832C838C819D81009731F02C813D81D9
:102A40002130310569F017C0FE01339680E042E085
:102A500050E060E070E022E08F010E949F110BC007
:102A6000FE01339680E042E050E060E070E022E05A
:102A70008F010E949F111092C70282ED91E00E9487
:102A8000260227960FB6F894DEBF0FBECDBFCF91BA
:102A9000DF911F910F910895DF93CF93CDB7DEB7EC
:102AA0002F970FB6F894DEBF0FBECDBF19828EE010
:102AB000FE013296DF01982F1D929A95E9F781E089
:102AC0000E948A0F8823C9F5CE0102960E94D21077
:102AD0000E94CF128C818295869587708983898127
:102AE000813049F488858093AE0219828FED91E0A0
:102AF0000E94260222C08981823049F48885809311
:102B0000AF0219828BEE91E00E94260216C08981E5
:102B1000833099F488EF91E00E9426028885813005
:102B200059F41092C8021092C6020E944A1081E025
:102B30008093C1021092C30219822F960FB6F894A7
:102B4000DEBF0FBECDBFCF91DF910895DF93CF934E
:102B5000CDB7DEB78091B0029091B102019690930B
:102B6000B1028093B0028091B0029091B1028530A1
:102B7000910530F00E94F0001092B1021092B00264
:102B8000CF91DF910895DF93CF93CDB7DEB783E088
:102B900063E00E94730581E00E946F0678940E94B2
:102BA0008A0786EA95E10E94F0070E940C13CF91F4
:102BB000DF910895DF93CF93CDB7DEB786EC91E038
:102BC00064E170E041E020E00E94670088ED91E060
:102BD00068E270E041E020E00E9467008FEC91E045
:102BE00062E370E041E02AE00E94670081EE91E03C
:102BF00065E070E041E020E00E946700CF91DF9146
:102C00000895DF93CF93CDB7DEB70E94C3150E941E
:102C1000DA150E948101FDCFAA1BBB1B51E107C041
:102C2000AA1FBB1FA617B70710F0A61BB70B881F5C
:102C3000991F5A95A9F780959095BC01CD010895EB
:042C4000F894FFCF36
:102C4400352F414343204F4E202D20362F414343FF
:102C5400204F4646202D20372F6C616E65206F6E05
:102C6400202D20382F6C616E65206F6666202D2024
:102C7400392F73617665207A6F6E65200D0A000D19
:102C84000A20414343204953204F4646205245548D
:102C940055524E20544F204D414E4955414C204DE4
:102CA4004F4445200D0A000D0A206C616E656B656A
:102CB4006570206F6E200D0A000D0A206C616E6530
:102CC4006B656570206F4646200D0A000D0A204191
:102CD4004343204953204F4E2050524553532036EE
:102CE40020544F204F464620544845204D4F4445DC
:102CF400200D0A000D0A20656E74657220737065DC
:102D04006564200D0A004143432053454E54200D71
:102D14000A004C414E452053454E54200D0A0041B3
:102D240043432052454356200D0A004C414E452052
:102D340052454356200D0A00454D472052454356FF
:102D4400200D0A0000000000010100020000030041
:102D54000004000005000006000007000100000157
:102D64000100010200010301010400010501010643
:102D74000001070002000102010002020002030038
:102D8400020400020500020600020700030000031B
:102D9400010003020003030003040003050003060B
:102DA40000030700040001040100040200040300FE
:0C2DB400040400040500040600040700ED
:00000001FF
