:100000000C9446000C9465000C9465000C946500FB
:100010000C9465000C9465000C9465000C946500CC
:100020000C9465000C9465000C9465000C943B0ADC
:100030000C94E1090C940E0A0C94B4090C94F60A81
:100040000C94C70A0C94450B0C9465000C94650045
:100050000C9465000C9465000C9465000C9465008C
:100060000C9465000C9465000C9465000C9465007C
:100070000C9465000C9465000C9465000C9465006C
:100080000C9465000C9465000C94650011241FBE4F
:10009000CFEFD0E1DEBFCDBF12E0A0E0B1E0EAE0FB
:1000A000F4E200E00BBF02C007900D92A838B10740
:1000B000D9F712E0A8E8B2E001C01D92A03EB10756
:1000C000E1F70E947D110C9403120C940000EF9252
:1000D000FF920F931F937B018C0120E030E040E002
:1000E0005FE40E94130488238CF0C801B70120E06C
:1000F00030E040E05FE40E94DF010E9401059B01C7
:10010000AC01205030404040504806C0C801B70103
:100110000E9401059B01AC01B901CA011F910F9119
:10012000FF90EF900895A0E0B0E0E9E9F0E00C94D2
:10013000CC11DC012B01FA019C91923008F439C1F9
:10014000EB018881823008F433C1943069F4843043
:1001500009F02FC111969C9111978981981709F484
:1001600028C1A0E0B1E025C1843009F421C182306A
:10017000A9F4923009F01DC19A01AD0188E0EA01AD
:100180000990AE01E90109929E018150C1F7E20197
:10019000898111969C918923818308C1923009F449
:1001A00007C112962D903C901397EB018A819B8199
:1001B0001496AD90BD90CD90DC901797EC80FD80AB
:1001C0000E811F819101281B390BB90137FF04C033
:1001D00066277727621B730B603271050CF061C0D4
:1001E000121613066CF537014801062E04C09694CA
:1001F0008794779467940A94D2F721E030E040E046
:1002000050E004C0220F331F441F551F6A95D2F7D8
:1002100021503040404050402E213F214023512367
:10022000211531054105510521F021E030E040E084
:1002300050E079018A01E628F728082919293CC0ED
:10024000232BD1F1260E371E35014601062E04C0A0
:1002500096948794779467940A94D2F721E030E0DB
:1002600040E050E004C0220F331F441F551F6A9521
:10027000D2F721503040404050402A213B214C21B0
:100280005D21211531054105510521F021E030E0C6
:1002900040E050E059016A01A628B728C828D928AB
:1002A0000BC0821593052CF01C01AA24BB24650108
:1002B00003C0EE24FF24870111969C91D201119670
:1002C0008C91981709F445C0992339F0A80197013A
:1002D0002A193B094C095D0906C0A60195012E1992
:1002E0003F09400B510B57FD08C011823382228217
:1002F00024833583468357831DC081E08183338205
:10030000228288279927DC01821B930BA40BB50B53
:1003100084839583A683B7830DC0220F331F441FA8
:10032000551F2483358346835783828193810197A8
:10033000938382832481358146815781DA01C90103
:100340000197A109B1098F5F9F4FAF4FBF4328F3BA
:100350000BC0918333822282EA0CFB1C0C1D1D1DF5
:10036000E482F5820683178383E0808324813581CC
:100370004681578157FF1AC0C901AA2797FDA0954A
:10038000BA2F81709070A070B070569547953795D0
:100390002795822B932BA42BB52B84839583A6833F
:1003A000B78382819381019693838283DF0101C0A9
:1003B000D201CD01CDB7DEB7E2E10C94E811A0E2A5
:1003C000B0E0E5EEF1E00C94D81169837A838B8379
:1003D0009C832D833E834F835887E9E0EE2EF12CDA
:1003E000EC0EFD1ECE010196B7010E94F2068E01B1
:1003F0000F5E1F4FCE010596B8010E94F2068A8952
:1004000091E089278A8BC701B801AE01475E5F4F33
:100410000E9493000E941D06A096E6E00C94F41141
:10042000A0E2B0E0E6E1F2E00C94D81169837A83AF
:100430008B839C832D833E834F835887F9E0EF2E77
:10044000F12CEC0EFD1ECE010196B7010E94F206C2
:100450008E010F5E1F4FCE010596B8010E94F20675
:10046000C701B801AE01475E5F4F0E9493000E9432
:100470001D06A096E6E00C94F411A0E2B0E0E3E4DF
:10048000F2E00C94CC1169837A838B839C832D8357
:100490003E834F835887CE010196BE01675F7F4F31
:1004A0000E94F206CE010596BE016F5E7F4F0E944C
:1004B000F2069985923088F089898230C8F09430AC
:1004C00019F4823051F404C0843029F4923081F45C
:1004D00080E091E0C6C0923049F420E09A858A8994
:1004E000981321E02A87CE010996BBC0823049F4D7
:1004F00020E09A858A89981321E02A8BCE014196C3
:10050000B0C02D843E844F8458886D887E888F8843
:10051000988CEE24FF248701AA24BB24650140E0C7
:1005200050E060E070E0E0E0F0E0C10181709070C8
:10053000892BE9F0E60CF71C081D191D9A01AB0187
:100540002A0D3B1D4C1D5D1D80E090E0A0E0B0E059
:10055000E614F7040805190520F481E090E0A0E016
:10056000B0E0BA01A901480F591F6A1F7B1FAA0CEE
:10057000BB1CCC1CDD1C97FE08C081E090E0A0E015
:10058000B0E0A82AB92ACA2ADB2A3196E032F1055E
:1005900049F0660C771C881C991C56944794379434
:1005A0002794C3CFFA85EA892B893C898B859C8562
:1005B000280F391F2E5F3F4F17C0CA0181709070FE
:1005C000892B61F016950795F794E79480E090E009
:1005D000A0E0B0E8E82AF92A0A2B1B2B769567954C
:1005E000579547952F5F3F4F77FDE7CF0CC0440FDE
:1005F000551F661F771F17FD4160EE0CFF1C001F83
:10060000111F21503040403090E0590790E06907B9
:1006100090E4790760F32B8F3C8FDB01CA018F7761
:100620009070A070B07080349105A105B10561F49F
:1006300047FD0AC0E114F1040105110529F0405CF1
:100640005F4F6F4F7F4F40781A8EFE1711F081E099
:100650008A8F4D8F5E8F6F8F78A383E0898FCE0155
:1006600049960E941D06A096E2E10C94E811A8E1CB
:10067000B0E0EDE3F3E00C94D41169837A838B83CB
:100680009C832D833E834F835887B9E0EB2EF12C5A
:10069000EC0EFD1ECE010196B7010E94F2068E01FE
:1006A0000F5E1F4FCE010596B8010E94F206298504
:1006B000223008F47EC03989323010F4B8017CC091
:1006C0008A859A8989278A87243011F0223031F46B
:1006D000231709F06EC060E071E06EC0343039F469
:1006E0001D861E861F86188A1C861B8604C0323013
:1006F00021F484E08987B7015FC02B853C858B8915
:100700009C89281B390B3C872B87ED84FE840F8541
:100710001889AD88BE88CF88D88CEA14FB040C05F4
:100720001D0540F4EE0CFF1C001F111F215030402E
:100730003C872B8720E030E040E050E080E090E014
:10074000A0E0B0E460E070E0EA14FB040C051D05D5
:1007500040F0282B392B4A2B5B2BEA18FB080C099D
:100760001D09B695A79597958795EE0CFF1C001F60
:10077000111F6F5F7F4F6F31710531F7DA01C901CA
:100780008F779070A070B07080349105A105B1058D
:1007900061F427FD0AC0E114F1040105110529F0F7
:1007A000205C3F4F4F4F5F4F20782D873E874F870C
:1007B000588BBE01675F7F4FCB010E941D06689674
:1007C000EAE00C94F011A8E1B0E0E9EEF3E00C945B
:1007D000D81169837A838B839C832D833E834F83D7
:1007E000588789E0E82EF12CEC0EFD1ECE01019613
:1007F000B7010E94F2068E010F5E1F4FCE010596D3
:10080000B8010E94F2068985823040F089898230E1
:1008100028F0C701B8010E946A0701C08FEF6896EF
:10082000E6E00C94F411A8E1B0E0E9E1F4E00C9406
:10083000D81169837A838B839C832D833E834F8376
:10084000588789E0E82EF12CEC0EFD1ECE010196B2
:10085000B7010E94F2068E010F5E1F4FCE01059672
:10086000B8010E94F2068985823040F08989823081
:1008700028F0C701B8010E946A0701C08FEF68968F
:10088000E6E00C94F411A8E1B0E0E9E4F4E00C94A3
:10089000D81169837A838B839C832D833E834F8316
:1008A000588789E0E82EF12CEC0EFD1ECE01019652
:1008B000B7010E94F2068E010F5E1F4FCE01059612
:1008C000B8010E94F2068985823040F08989823021
:1008D00028F0C701B8010E946A0701C081E068964C
:1008E000E6E00C94F411A8E1B0E0E9E7F4E00C9440
:1008F000D81169837A838B839C832D833E834F83B6
:10090000588789E0E82EF12CEC0EFD1ECE010196F1
:10091000B7010E94F2068E010F5E1F4FCE010596B1
:10092000B8010E94F2068985823040F089898230C0
:1009300028F0C701B8010E946A0701C081E06896EB
:10094000E6E00C94F411A8E0B0E0E9EAF4E00C94DD
:10095000D5119B01AC0183E08983DA01C9018827A5
:10096000B7FD83959927AA27BB27B82E21153105F6
:100970004105510519F482E089833AC08823A9F022
:10098000203080E0380780E0480780E8580729F4E5
:1009900060E070E080E09FEC30C0EE24FF2487012F
:1009A000E21AF30A040B150B02C079018A018EE1E9
:1009B000C82ED12CDC82CB82ED82FE820F83188779
:1009C000C801B7010E94CE0501971816190684F4D4
:1009D000082E04C0EE0CFF1C001F111F0A94D2F752
:1009E000ED82FE820F831887C81AD90ADC82CB8277
:1009F000BA82CE0101960E941D062896E9E00C9469
:100A0000F111ACE0B0E0E7E0F5E00C94DC116983B3
:100A10007A838B839C83CE010196BE016B5F7F4FEF
:100A20000E94F2068D81823061F1823050F1843073
:100A300021F48E81882351F12EC02F81388537FD16
:100A400020C06E812F3131051CF06623F9F023C0E0
:100A50008EE190E0821B930B29853A854B855C855E
:100A600004C056954795379527958A95D2F7662302
:100A7000B1F050954095309521953F4F4F4F5F4FC6
:100A80000EC020E030E040E050E009C02FEF3FEF23
:100A90004FEF5FE704C020E030E040E050E8B901EC
:100AA000CA012C96E2E00C94F811A8E0B0E0EBE566
:100AB000F5E00C94D4117B018C0161157105810561
:100AC000910519F482E0898360C083E089838EE117
:100AD000C82ED12CDC82CB82ED82FE820F83188758
:100AE000C801B7010E94CE05FC013197F7FF3BC05A
:100AF000222733272E1B3F0B57016801022E04C00B
:100B0000D694C794B794A7940A94D2F740E050E0E3
:100B100060E070E081E090E0A0E0B0E004C0880F09
:100B2000991FAA1FBB1F2A95D2F70197A109B109E6
:100B30008E219F21A023B1230097A105B10521F0AB
:100B400041E050E060E070E04A295B296C297D2992
:100B50004D835E836F8378878EE190E08E1B9F0BC1
:100B60009C838B8312C0309781F00E2E04C0EE0C54
:100B7000FF1C001F111F0A94D2F7ED82FE820F8323
:100B80001887CE1ADF0ADC82CB821A82CE01019648
:100B90000E941D062896EAE00C94F011EF92FF9255
:100BA0000F931F937B018C0180E0E81680E0F8062C
:100BB00081E0080780E0180788F48FEFE816F10459
:100BC0000105110531F028F088E090E0A0E0B0E0E8
:100BD00017C080E090E0A0E0B0E012C080E0E8162E
:100BE00080E0F80680E0080781E0180728F088E137
:100BF00090E0A0E0B0E004C080E190E0A0E0B0E0D0
:100C000020E230E040E050E0281B390B4A0B5B0B40
:100C100004C016950795F794E7948A95D2F7F701E3
:100C2000E85FFE4F8081281B310941095109C90144
:100C30001F910F91FF90EF900895DF92EF92FF9236
:100C40000F931F93FC01E480F58006811781D1800A
:100C50008081823048F480E090E0A0E1B0E0E82AB2
:100C6000F92A0A2B1B2BA5C0843009F49FC08230BF
:100C700021F4EE24FF24870105C0E114F1040105ED
:100C8000110519F4E0E0F0E096C0628173819FEFF6
:100C9000623879070CF05BC022E83FEF261B370B68
:100CA0002A3131052CF020E030E040E050E02AC04D
:100CB000B801A701022E04C0769567955795479510
:100CC0000A94D2F781E090E0A0E0B0E004C0880F81
:100CD000991FAA1FBB1F2A95D2F70197A109B10935
:100CE0008E219F21A023B1230097A105B10521F0FA
:100CF00081E090E0A0E0B0E09A01AB01282B392B15
:100D00004A2B5B2BDA01C9018F779070A070B0700D
:100D100080349105A105B10539F427FF09C0205C95
:100D20003F4F4F4F5F4F04C0215C3F4F4F4F5F4FCE
:100D3000E0E0F0E02030A0E03A07A0E04A07A0E4BD
:100D40005A0710F0E1E0F0E079018A0127C060382D
:100D5000710564F5FB01E158FF4FD801C7018F779A
:100D60009070A070B07080349105A105B10539F480
:100D7000E7FE0DC080E490E0A0E0B0E004C08FE3A7
:100D800090E0A0E0B0E0E80EF91E0A1F1B1F17FF5D
:100D900005C016950795F794E794319687E0169568
:100DA0000795F794E7948A95D1F705C0EE24FF24C0
:100DB0008701EFEFF0E06E2F679566276795902F1C
:100DC0009F77D794DD24D7948E2F8695492F462B75
:100DD000582F5D29B701CA011F910F91FF90EF9025
:100DE000DF900895FC01DB01408151812281622F57
:100DF0006F7770E0221F2227221F9381892F880F8F
:100E0000822B282F30E0991F9927991F11969C93C8
:100E1000119721153105A9F5411551056105710598
:100E200011F482E037C082E89FEF13969C938E9373
:100E300012979A01AB0167E0220F331F441F551F21
:100E40006A95D1F783E08C930DC0220F331F441FA6
:100E5000551F12968D919C911397019713969C9311
:100E60008E931297203080E0380780E0480780E4B6
:100E7000580758F314962D933D934D935C93179711
:100E800008952F3F310579F441155105610571052C
:100E900019F484E08C93089564FF03C081E08C937F
:100EA00012C01C9210C02F57304013963C932E93C3
:100EB000129783E08C9387E0440F551F661F771FBE
:100EC0008A95D1F7706414964D935D936D937C93DE
:100ED000179708951F93DC01FB019C91923008F451
:100EE00047C08081823008F443C0943051F4119699
:100EF0001C91843099F58181682F70E0611B710924
:100F00003FC0843021F0923031F48230B9F18181D8
:100F1000882389F12DC011961C9111978230F1F030
:100F200081811817D9F412962D913C9113978281E3
:100F300093818217930794F028173907BCF0149611
:100F40008D919D910D90BC91A02D2481358146817C
:100F50005781281739074A075B0718F4112341F016
:100F60000AC082179307A407B50740F4112319F0AC
:100F700061E070E005C06FEF7FEF02C060E070E0FD
:100F8000CB011F910895CF93DF93EC01009711F4EB
:100F900083E02BC084E0613B780710F081E025C03E
:100FA00030918802353010F082E01FC0832F90E02E
:100FB000FC01EE0FFF1FE80FF91FEE0FFF1FDF010F
:100FC000A757BD4F1196DC93CE9313966C9313974E
:100FD000E557FD4F408384E114968C931497159642
:100FE0002C933F5F3093880280E0DF91CF9108958A
:100FF00090918802EBE8F2E083E0989F9001112441
:10100000220F331F2E0F3F1F42E00FC08081882325
:1010100059F092818181981728F0408383818C5EFA
:10102000828302C09C5E92833696E217F30771F7C3
:1010300008950F931F93CF93DF9310E001E019C041
:10104000812F90E0FC01EE0FFF1FE80FF91FEF0169
:10105000CC0FDD1FC557DD4F8881823049F4EE0F7C
:10106000FF1FE757FD4F0190F081E02D09950883A0
:101070001F5F80918802181718F3DF91CF911F919D
:101080000F9108950E94941008950E949910089558
:101090000E94F40F08950E940D1008950E94C20F3F
:1010A00008958230D9F0833028F4882341F08130CC
:1010B00081F50EC08330F1F0843059F51EC08FB534
:1010C0008E7F8FBD8FB58D7F8FBD8EB5877F0EC014
:1010D0008FB58E7F8FBD8FB58D7F14C08FB58E7FFE
:1010E0008FBD8FB58D7F8FBD8EB588608EBD8EB55F
:1010F0008F7E0EC08FB58E7F02C08FB581608FBD91
:101100008FB582608FBD8EB588608EBD8EB58061D3
:101110008EBD8EB5887F8EBD8EB5862B8EBD089513
:10112000882319F0813071F407C08FB58F7B8FBD94
:101130008FB580688FBD08958FB580648FBD8FB5E2
:1011400080688FBD0895882319F0813071F407C03D
:101150008FB58F7E8FBD8FB580628FBD08958FB59F
:1011600080618FBD8FB580628FBD08959BBD8ABDA4
:1011700008958EB58E7F8EBD8EB58D7F8EBD8EB55A
:101180008B7F8EBD08959C0140E050E060E970EDDA
:1011900083E090E00E94AA112150304037BD26BD67
:1011A0000895EF92FF920F931F937B018C0120E033
:1011B00030E048EC52E40E9473041816E4F166B57E
:1011C00077B56F5F7F4F80E090E00E9455059B01EF
:1011D000AC01C801B7010E943D0220E030E048ECBC
:1011E00052E40E94370320E030E040E85FE30E94D1
:1011F000DF010E9467007BBD6ABD66B577B56F5F92
:101200007F4F80E090E00E9455059B01AC01C80132
:10121000B7010E943D0220E030E048EC52E40E9419
:10122000370320E030E040E85FE30E94DF010E94E6
:10123000670079BD68BD1F910F91FF90EF900895F1
:10124000EF92FF920F931F937B018C0120E030E01F
:1012500048EC52E40E94730418160CF440C060E09D
:1012600070E088EC92E4A80197010E94DF017B0105
:101270008C0166B577B56F5F7F4F80E090E00E948C
:1012800055059B01AC01C801B7010E943D0220E059
:1012900030E048EC52E40E9437030E9467007BBDB7
:1012A0006ABD66B577B56F5F7F4F80E090E00E94C2
:1012B00055059B01AC01C801B7010E943D0220E029
:1012C00030E048EC52E40E94370320E030E040E890
:1012D0005FE30E94DF010E94670079BD68BD1F9136
:1012E0000F91FF90EF900895882321F48EB58064CC
:1012F0008EBD0895813019F48EB58F7B8EBD089513
:1013000087B7806287BF089587B78F7D87BF0895AD
:1013100087B7846087BF089587B78B7F87BF08959D
:1013200087B7806187BF089587B78F7E87BF08958D
:1013300087B7886087BF089587B7877F87BF08957D
:101340009093AE028093AD0208959093AC02809387
:10135000AB0208959093AA028093A90208959093F6
:10136000A8028093A70208951F920F920FB60F92C2
:101370000BB60F9211242F933F934F935F936F936C
:101380007F938F939F93AF93BF93EF93FF93E091DE
:10139000AD02F091AE02309709F00995FF91EF91FF
:1013A000BF91AF919F918F917F916F915F914F917D
:1013B0003F912F910F900BBE0F900FBE0F901F907B
:1013C00018951F920F920FB60F920BB60F92112421
:1013D0002F933F934F935F936F937F938F939F933D
:1013E000AF93BF93EF93FF93E091AB02F091AC0208
:1013F000309709F00995FF91EF91BF91AF919F91BF
:101400008F917F916F915F914F913F912F910F90AD
:101410000BBE0F900FBE0F901F9018951F920F924A
:101420000FB60F920BB60F9211242F933F934F9349
:101430005F936F937F938F939F93AF93BF93EF933C
:10144000FF93E091A902F091AA02309709F0099563
:10145000FF91EF91BF91AF919F918F917F916F918C
:101460005F914F913F912F910F900BBE0F900FBE48
:101470000F901F9018951F920F920FB60F920BB6F8
:101480000F9211242F933F934F935F936F937F930A
:101490008F939F93AF93BF93EF93FF93E091A70236
:1014A000F091A802309709F00995FF91EF91BF9153
:1014B000AF919F918F917F916F915F914F913F91EC
:1014C0002F910F900BBE0F900FBE0F901F9018958D
:1014D000813051F0813028F0823061F0833099F40E
:1014E0000CC083B78F7B02C083B7806483BF83B790
:1014F000877F08C083B78F7B02C083B7806483BFB8
:1015000083B7886083BF83B7887F83BF83B76770E3
:10151000862B83BF089582BF0895813051F08130BA
:1015200028F0823061F08330B9F410C083B78F7E29
:1015300002C083B7806183BF83B78F7D05C083B747
:101540008F7E83BF83B7806283BF089583B7806136
:1015500083BF83B7806283BF089587B7816087BFE9
:10156000089587B78E7F87BF089587B7826087BF4A
:10157000089587B78D7F87BF08959093B0028093B9
:10158000AF0208959093B2028093B10208951F9222
:101590000F920FB60F920BB60F9211242F933F9319
:1015A0004F935F936F937F938F939F93AF93BF936B
:1015B000EF93FF9386E082BFE091AF02F091B0021B
:1015C000309709F00995FF91EF91BF91AF919F91ED
:1015D0008F917F916F915F914F913F912F910F90DC
:1015E0000BBE0F900FBE0F901F9018951F920F9279
:1015F0000FB60F920BB60F9211242F933F934F9378
:101600005F936F937F938F939F93AF93BF93EF936A
:10161000FF93E091AF02F091B002309709F0099585
:10162000FF91EF91BF91AF919F918F917F916F91BA
:101630005F914F913F912F910F900BBE0F900FBE76
:101640000F901F9018956E9A6D986C9A6B986A9887
:10165000689A6998709808958FB9779BFECF8FB17B
:1016600008956C9A689A699870986B9A6A9A6D9ABC
:101670006E9A08956F9A9093B4028093B302509338
:10168000B6024093B5026FB908951F920F920FB63C
:101690000F920BB60F9211242F933F934F935F93AA
:1016A0006F937F938F939F93AF93BF93EF93FF932A
:1016B000E091B302F091B40209958FB1E091B502C7
:1016C000F091B6028083FF91EF91BF91AF919F910E
:1016D0008F917F916F915F914F913F912F910F90DB
:1016E0000BBE0F900FBE0F901F9018951F93182FD1
:1016F0008CE060E00E949D0C7699FECFEDE2F0E078
:101700001283779BFECF8CE061E00E949D0C8FB12D
:101710001F9108956E9A6D9888E061E00E949D0C7B
:101720006C9A6B986A98689A699870980895E8E03E
:10173000F2E041E050E08081823009F46DC08330F6
:1017400030F4882359F0813009F0F0C036C083307E
:1017500009F491C0843009F0E9C0BBC082818823BC
:1017600059F42AB3CA01018002C0880F991F0A9454
:10177000E2F7282B2ABBDAC0813061F42AB3CA0110
:10178000018002C0880F991F0A94E2F78095822396
:101790008ABBCCC0823009F0C9C03AB3CA0101800B
:1017A00002C0880F991F0A94E2F7282F209523235F
:1017B0002ABB2BB3822B8BBBB9C08281882359F4FF
:1017C00027B3CA01018002C0880F991F0A94E2F76B
:1017D000282B27BBABC0813061F427B3CA0101803D
:1017E00002C0880F991F0A94E2F78095822387BB75
:1017F0009DC0823009F09AC037B3CA01018002C08F
:10180000880F991F0A94E2F7282F2095232327BBDE
:1018100028B3822B88BB8AC08281882359F424B3E1
:10182000CA01018002C0880F991F0A94E2F7282B91
:1018300024BB7CC0813061F424B3CA01018002C0A2
:10184000880F991F0A94E2F78095822384BB6EC0AB
:10185000823009F06BC034B3CA01018002C0880F26
:10186000991F0A94E2F7282F2095232324BB25B340
:10187000822B85BB5BC08281882359F421B3CA01C6
:10188000018002C0880F991F0A94E2F7282B21BB20
:101890004DC0813061F421B3CA01018002C0880FBC
:1018A000991F0A94E2F78095822381BB3FC0823062
:1018B000E9F531B3CA01018002C0880F991F0A946B
:1018C000E2F7282F2095232321BB22B3822B82BB52
:1018D0002DC08281882359F422B1CA01018002C03F
:1018E000880F991F0A94E2F7282B22B91FC0813074
:1018F00061F422B1CA01018002C0880F991F0A94C5
:10190000E2F78095822382B911C0823079F432B136
:10191000CA01018002C0880F991F0A94E2F7282F9C
:101920002095232322B923B1822B83B9339682E0F9
:10193000E83CF80709F0FFCE0895982F9695969504
:101940009695923009F44DC0933030F4992359F0B4
:10195000913009F0A2C026C0933009F461C09430E0
:1019600009F09BC07CC0482F50E0662369F02BB380
:101970004770507081E090E002C0880F991F4A952F
:10198000E2F7282B2BBB08952BB34770507081E0F2
:1019900090E002C0880F991F4A95E2F78095822354
:1019A0008BBB0895482F50E0662369F028B3477039
:1019B000507081E090E002C0880F991F4A95E2F7CD
:1019C000282B28BB089528B34770507081E090E021
:1019D00002C0880F991F4A95E2F78095822388BB41
:1019E0000895482F50E0662369F025B34770507082
:1019F00081E090E002C0880F991F4A95E2F7282BFA
:101A000025BB089525B34770507081E090E002C077
:101A1000880F991F4A95E2F78095822385BB089528
:101A2000482F50E0662369F022B34770507081E080
:101A300090E002C0880F991F4A95E2F7282B22BB3D
:101A4000089522B34770507081E090E002C0880F83
:101A5000991F4A95E2F78095822382BB0895482F0B
:101A600050E0662369F023B14770507081E090E048
:101A700002C0880F991F4A95E2F7282B23B90895D1
:101A800023B14770507081E090E002C0880F991F29
:101A90004A95E2F78095822383B90895382F3770ED
:101AA000869586958695823019F1833030F48823A7
:101AB00049F0813009F03CC010C0833021F18430FE
:101AC000B9F52CC02BB381E090E002C0880F991FBC
:101AD0003A95E2F728272BBB089528B381E090E0E0
:101AE00002C0880F991F3A95E2F7282728BB08956E
:101AF00025B381E090E002C0880F991F3A95E2F784
:101B0000282725BB089522B381E090E002C0880F0A
:101B1000991F3A95E2F7282722BB089523B181E067
:101B200090E002C0880F991F3A95E2F7282723B961
:101B30000895282F2770869586958695823089F09E
:101B4000833028F4882349F0813029F408C0833099
:101B500051F0843089F080E0089589B305C086B3E0
:101B600003C083B301C080B390E002C09595879510
:101B70002A95E2F78170089581B190E002C09595B1
:101B800087952A95E2F7817008958091B702909128
:101B9000B80208958091B9029091BA02892B81F41C
:101BA00086B597B59093BC028093BB0281E00E94FA
:101BB000740981E090E09093BA028093B90208958D
:101BC0008091B9029091BA02019719F586B597B53F
:101BD0009093BE028093BD020E9484098091BD0251
:101BE0009091BE022091BB023091BC02821B930BEC
:101BF000880F991F880F991F4D966AE370E00E9425
:101C000096117093B8026093B7021092BA021092C4
:101C1000B90208958091B9029091BA02892BB1F46A
:101C20001DBC1CBC8FE161E00E949D0C85E38A9580
:101C3000F1F78FE160E00E949D0C0E9480098AEC20
:101C40009DE00E94AF0980E00E94740908950E94FF
:101C5000990D0895813019F48CE060E002C08CE0A9
:101C600061E00E949D0C0895CF92DF92EF92FF9267
:101C70000F931F93182F6A017B01022F81E00E94AE
:101C80002A0E82E00E942C0B812F0E942C0BD70180
:101C9000C60133E0B695A795979587953A95D1F704
:101CA0001C2D1295110F107E0023E1F00E942C0BC9
:101CB000D701C6012BE1B695A795979587952A95EB
:101CC000D1F7182B812F88600E942C0B83E1F694AA
:101CD000E794D794C7948A95D1F78C2D0E942C0B4A
:101CE00080E003C00E942C0B812F0E942C0B80E00F
:101CF0000E942A0E1F910F91FF90EF90DF90CF90DE
:101D000008958F929F92BF92CF92DF92EF92FF92AF
:101D10000F931F93CF93DF936A017B01B22E48018B
:101D200081E00E942A0E82E00E942C0B80E30E9438
:101D30002C0B8B2D82958695869583700E942C0B9B
:101D4000D701C60143E0B695A795979587954A9523
:101D5000D1F70E942C0B8C2D8295880F807E0E94DB
:101D60002C0B80E00E942C0B80E00E942C0B8B2D12
:101D70008F700E942C0B10E0CB2DD0E0CF70D07074
:101D800006C0E80DF91D80810E942C0B1F5FE12F1A
:101D9000F0E0EC17FD07ACF380E00E942A0E81E032
:101DA0000E942A0E81E80E942C0B80E00E942A0EDD
:101DB000DF91CF911F910F91FF90EF90DF90CF9027
:101DC000BF909F908F900895FF920F931F93182FAD
:101DD000062FF42E81E00E942A0E85E00E942C0B33
:101DE000812F0E942C0B802F0E942C0B8F2D0E9484
:101DF0002C0B80E00E942A0E1F910F91FF900895F6
:101E000081E00E942A0E80EC0E942C0B80E00E9450
:101E10002A0E08950F931F93182F062F81E00E941A
:101E20002A0E82E00E942C0B812F0E942C0B802F07
:101E30000E942C0B80E00E942A0E1F910F910895A2
:101E40000F931F93982F162F042F8AE2692F0E9459
:101E50000A0F89E2612F0E940A0F88E2602F0E9418
:101E60000A0F1F910F910895CF93DF9381E00E9495
:101E70002A0E83E00E942C0B80E60E942C0BC2ED00
:101E8000D2E080E00E942C0B899382E0C03ED8070C
:101E9000C1F780E00E942A0E8CE260E00E940A0FE7
:101EA000DF91CF9108951F93182F81E00E942A0E91
:101EB00083E00E942C0B812F0E942C0B80E00E945B
:101EC0002C0B182F80E00E942A0E812F1F9108955D
:101ED0001F93182F482F4295440F407E8FE060EEED
:101EE0000E94E40E8EE00E94530F829586958770C3
:101EF0008117C1F71F9108950E948A0B0E94000F5D
:101F00008FE064E80E940A0F8EE00E94530F8295D2
:101F1000869587708430C1F780E861EB45E00E94C8
:101F2000200F80E240E050E060E070E021E00E949D
:101F3000340E84E240E050E060E070E021E00E9476
:101F4000340E8BE261E00E940A0F80E00E94680F6D
:101F500008950E948A0B0E94000F8FE064E80E949F
:101F60000A0F8EE00E94530F829586958770843009
:101F7000C1F780E861EB45E00E94200F80E00E94FD
:101F8000680F08958091C4028130A9F487E10E940E
:101F9000270E813011F484E008C086E10E94270EEC
:101FA000813011F483E001C089E08093800281E0F8
:101FB0008093C20208958823B1F48091C5028130D4
:101FC00091F487E10E94270E813029F086E10E947A
:101FD000270E813011F485E001C086E080938002F5
:101FE00081E08093C20208950E94C50D9C0106976E
:101FF000049730F481E08093C0028093C302089577
:10200000235030402330310538F481E08093C00202
:102010008093BF028093C30208950E940A0E089520
:102020008AE10E94990D882349F50E94340F80911E
:10203000D402829586958770813099F484E00E945D
:102040004E0D8091D802813039F48093C402809182
:10205000D9028093C6020895882381F41092C402A5
:102060000895823059F48091D802813019F4809318
:10207000C5020895882311F41092C50208950F93A4
:102080001F93DF93CF9300D0CDB7DEB78091BF020F
:102090009091C00299838A838091C3028130B1F408
:1020A00080E043E050E060E070E022E08E010F5FEE
:1020B0001F4F0E94810E1092C3021092BF02109215
:1020C000C0021092C4021092C50227C08091C202C1
:1020D000813081F485E00E944E0D80E042E050E0C6
:1020E00060E070E021E000E812E00E94810E1092B2
:1020F000C20213C08091C102813079F486E00E944F
:102100004E0D80E041E050E060E070E021E007EC3F
:1021100012E00E94810E1092C1020F900F90CF9199
:10212000DF911F910F9108950E943F100E9410109F
:1021300008956F927F928F929F92AF92BF92CF92AB
:10214000DF92EF92FF920F931F938091C402813030
:1021500009F081C00E94C50D7C019093C902809353
:10216000C802A090C6026A2D70E080E090E00E9454
:1021700055053B014C018091810290918202E81A41
:10218000F90AF092CF02E092CE020027F7FC009508
:10219000102FC801B7010E94A3042091830230913F
:1021A000840240918502509186020E943D029B016B
:1021B000AC01C401B3010E9410027B018C01609349
:1021C000CA027093CB028093CC029093CD02BB24C1
:1021D000CC24B7FCC094DC2CC601B5010E94A3043A
:1021E0009B01AC01C801B7010E94E303181644F437
:1021F0006092CA027092CB028092CC029092CD0281
:102200006091CA027091CB028091CC029091CD0274
:1022100020E030E040EA51E40E944304882364F463
:1022200080E090E0A0EAB1E48093CA029093CB02F0
:10223000A093CC02B093CD026091CA027091CB0200
:102240008091CC029091CD020E9467006093C702FA
:1022500081E08093C1021F910F91FF90EF90DF907A
:10226000CF90BF90AF909F908F907F906F90089588
:102270008BE498E060E570E041E020E00E94C30755
:1022800088E498E064E670E041E024E10E94C3073E
:102290008EE498E068E270E041E020E00E94C3072D
:1022A00085E498E068E770E041E028E20E94C30717
:1022B00082E498E064E170E041E020E00E94C3071E
:1022C000089580E063E00E94680A80E00E948D0A21
:1022D00086E00E948B0A78940E94AD0A84E891E11E
:1022E0000E94BD0A80E063E00E9451080E94970BA3
:1022F0000E94A90F0E947C0F08950E9461110E9404
:1023000038110E941908FDCF8091D0029091D1021E
:1023100001969093D1028093D002449730F00E94AE
:10232000F8071092D1021092D0020895AA1BBB1B8D
:1023300051E107C0AA1FBB1FA617B70710F0A61BC5
:10234000B70B881F991F5A95A9F780959095BC01E6
:10235000CD010895A1E21A2EAA1BBB1BFD010DC0E1
:10236000AA1FBB1FEE1FFF1FA217B307E407F50745
:1023700020F0A21BB30BE40BF50B661F771F881F21
:10238000991F1A9469F760957095809590959B01B7
:10239000AC01BD01CF0108952F923F924F925F9201
:1023A0006F927F928F929F92AF92BF92CF92DF9265
:1023B000EF92FF920F931F93CF93DF93CDB7DEB7CA
:1023C000CA1BDB0B0FB6F894DEBF0FBECDBF09945E
:1023D0002A88398848885F846E847D848C849B84B5
:1023E000AA84B984C884DF80EE80FD800C811B81C3
:1023F000AA81B981CE0FD11D0FB6F894DEBF0FBEF2
:0A240000CDBFED010895F894FFCF61
:10240A0000000000000000000001020203030303B1
:10241A00040404040404040405050505050505056A
:10242A00050505050505050506060606060606064A
:10243A000606060606060606060606060606060632
:10244A00060606060606060607070707070707071A
:10245A000707070707070707070707070707070702
:10246A0007070707070707070707070707070707F2
:10247A0007070707070707070707070707070707E2
:10248A0007070707070707070808080808080808CA
:10249A0008080808080808080808080808080808B2
:1024AA0008080808080808080808080808080808A2
:1024BA000808080808080808080808080808080892
:1024CA000808080808080808080808080808080882
:1024DA000808080808080808080808080808080872
:1024EA000808080808080808080808080808080862
:1024FA000808080808080808080808080808080852
:10250A00080808080808080800000000010000027E
:10251A000000030000040000050000060000070098
:10252A000100000101000102000103010104000190
:10253A000500010600010700020000020100020274
:10254A00000203000204000205000206010207015C
:10255A000300010301000302010303020304010350
:10256A000502030601030700040000040100040237
:10257A000004030004040004050004060004070024
:08258A000219000000404000AE
:00000001FF
